:060000000A128A11122809
:10000800FE00030EF7000408F8000A08F90083123E
:1000180003137F08FA000A128A11282F0A128A117C
:1000280015280A128A1547260A128A11E8000A12A8
:100038008A1548260A128A11E900831320308400A1
:1000480045300A128A154926FB01FC01FD0183018E
:100058000A128A116D2B0230831203135B020530DA
:1000680003195A020318982802305B020130031959
:100078005A02031C98280030CE000030CD00003012
:10008800CC000430CB00F430DC00C930DD00003097
:10009800DE000030DF005B08C6005A08C500643087
:1000A800C7000030C8000A128A15F4260A128A11FD
:1000B800831203134508E0004608E100E201E3016A
:1000C800E009E109E209E309E00A0319E10A031971
:1000D800E20A0319E30A6008DC0761080318610FE4
:1000E80076287728DD0762080318620F7C287D28A8
:1000F800DE0763080318630ADF075F08D2005E089B
:10010800D1005D08D0005C08CF000A128A110626CB
:100118000A128A11831203134B08643EA0004C088C
:100128000318013E003EA10002305B0201300319B2
:100138005A020318FF2801305B02893003195A025A
:10014800031CFF280030CE000030CD000030CC006A
:100158007830CB006430DC00C830DD000030DE00D1
:100168000030DF005B08C6005A08C5006430C700CD
:100178000030C8000A128A15F4260A128A1183125E
:1001880003134508E0004608E100E201E301E00945
:10019800E109E209E309E00A0319E10A0319E20A9D
:1001A8000319E30A6008DC0761080318610FDD28FA
:1001B800DE28DD0762080318620FE328E428DE075B
:1001C80063080318630ADF075F08D2005E08D100DE
:1001D8005D08D0005C08CF000A128A1106260A12B0
:1001E8008A11831203134B08C83EA0004C08031859
:1001F800013E003EA10001305B02893003195A021A
:100208000318662901305B022A3003195A02031CBD
:1002180066290030CE000030CD000030CC005F30C1
:10022800CB008430DC009930DD000030DE00003087
:10023800DF005B08C6005A08C5006430C7000030FC
:10024800C8000A128A15F4260A128A1183120313A7
:100258004508E0004608E100E201E301E009E109A0
:10026800E209E309E00A0319E10A0319E20A03199A
:10027800E30A6008DC0761080318610F442945296F
:10028800DD0762080318620F4A294B29DE07630855
:100298000318630ADF075F08D2005E08D1005D0813
:1002A800D0005C08CF000A128A1106260A128A11A9
:1002B800831203134B082C3EA0004C080318013E80
:1002C800013EA10001305B022A3003195A020318CB
:1002D800A52900305B02EC3003195A02031CA5293A
:1002E8003E30CB000030CC005B08C6005A08C50081
:1002F8006430C7000030C8000A128A15F4260A12B2
:100308008A11831203134509DC004609DD00DC0A63
:100318000319DD0A5C08683ECD005D080318013E3C
:10032800743ECE000A128A15C2270A128A11831255
:1003380003134B08903EA0004C080318013E013EF1
:10034800A10000305B02EC3003195A020318E429BB
:1003580000305B02C23003195A02031CE4292A3018
:10036800CB000030CC005B08C6005A08C5006430DA
:10037800C7000030C8000A128A15F4260A128A112A
:10038800831203134509DC004609DD00DC0A031962
:10039800DD0A5C08303ECD005D080318013E5C3E76
:1003A800CE000A128A15C2270A128A118312031371
:1003B8004B08F43EA0004C080318013E013EA10082
:1003C80000305B02C23003195A020318232A003096
:1003D8005B02A83003195A02031C232A1A30CB00E7
:1003E8000030CC005B08C6005A08C5006430C7005E
:1003F8000030C8000A128A15F4260A128A118312DC
:1004080003134509DC004609DD00DC0A0319DD0A8F
:100418005C08C83ECD005D080318013E4B3ECE0087
:100428000A128A15C2270A128A11831203134B086B
:10043800583EA0004C080318013E023EA1000030BF
:100448005B02A83003195A020318622A00305B02C3
:10045800903003195A02031C622A1830CB0000306E
:10046800CC005B08C6005A08C5006430C7000030DD
:10047800C8000A128A15F4260A128A118312031375
:100488004509DC004609DD00DC0A0319DD0A5C08C1
:10049800A03ECD005D080318013E413ECE000A1281
:1004A8008A15C2270A128A11831203134B08BC3E0D
:1004B800A0004C080318013E023EA10000305B0278
:1004C800903003195A020318A12A00305B028130C8
:1004D80003195A02031CA12A0F30CB000030CC00AC
:1004E8005B08C6005A08C5006430C7000030C80061
:1004F8000A128A15F4260A128A118312031345096F
:10050800DC004609DD00DC0A0319DD0A5C08403E10
:10051800CD005D080318013E383ECE000A128A1548
:10052800C2270A128A11831203134B08203EA00027
:100538004C080318013E033EA10000305B028130E5
:1005480003195A020318E02A00305B026E300319BF
:100558005A02031CE02A1330CB000030CC005B08A1
:10056800C6005A08C5006430C7000030C8000A1227
:100578008A15F4260A128A11831203134509DC002E
:100588004609DD00DC0A0319DD0A5C08643ECD007B
:100598005D080318013E323ECE000A128A15C227B2
:1005A8000A128A11831203134B08B63EA0004C08A6
:1005B8000318013E033EA10000305B026E300319B0
:1005C8005A0203181F2B00305B02623003195A02CB
:1005D800031C1F2B0C30CB000030CC005B08C6007E
:1005E8005A08C5006430C7000030C8000A128A15CE
:1005F800F4260A128A11831203134509DC004609FE
:10060800DD00DC0A0319DD0A5C08F83ECD005D0850
:100618000318013E2A3ECE000A128A15C2270A1282
:100628008A11831203134B084C3EA0004C08031890
:10063800013E043EA10000305B02623003195A02F9
:1006480003185C2B00305B025A3003195A02031C52
:100658005C2B5B08C6005A08C5006430C700003030
:10066800C8000A128A15F4260A128A118312031383
:100678004509DC004609DD00DC0A0319DD0A5C08CF
:10068800483EDE005D080318013E263EDF000310E9
:10069800DF0CDE0C0310DF0CDE0C0310DF0CDE0CAD
:1006A8005E08E23EA0005F080318013E043EA10078
:1006B80000305B025A3003195A02031C6A2B0230BD
:1006C8005B02053003195A02031C0800A001A101AE
:1006D80008007F3083120313E600D430E500AE3003
:1006E800E400E40B752BE50B752BE60B752B7C2BC7
:1006F8000A128A15BC260A128A110A128A1570264D
:100708000A128A110A128A1567270A128A110A120E
:100718008A15A6260A128A110D3083120313E400E3
:100728006408E70067080A128A11F1270A128A1179
:100738001A3083120313E6005E30E5008630E400C9
:10074800E40BA42BE50BA42BE60BA42B00008030B4
:100758000A128A1564260A128A111A3083120313A0
:10076800E6005E30E5008630E400E40BB92BE50BCB
:10077800B92BE60BB92B000084300A128A156426BF
:100788000A128A111A3083120313E6005E30E5005C
:100798008630E400E40BCE2BE50BCE2BE60BCE2BFC
:1007A8000000831203133308C9003208C8000A1274
:1007B8008A116F250A128A110A308312031338022C
:1007C8000318061C422CE801E901AA01AB012B0819
:1007D800803AFF0081307F02031DF42B90302A02FB
:1007E8000318242C0A128A1195260A128A110A1251
:1007F8008A15D4260A128A11831203132308690260
:10080800031D082C220868020318132C2308E9008A
:100818002208E8004308AC00AD01AC1BAD03013071
:10082800AA070318AB0A0030AB072B08803AFF0071
:1008380081307F02031D222C90302A02031CF62BE4
:10084800831203134308AA00AB01AA1BAB032D08AC
:100858002B06031D312C2C082A060319412C0A12D9
:100868008A11E0260A128A11013083120313AA079B
:100878000318AB0A0030AB072B2CB801C701C70A15
:1008880012300A128A11B3270A128A11831203132B
:1008980047034804031DA32CFA30E4006408C6008B
:1008A800C701FA30E5006508C80000300A128A1549
:1008B8003F270A128A11831203133308803AFF0074
:1008C8008F307F02031D6A2CA03032020318982C47
:1008D800023083120313E4006408C70013300A12BD
:1008E8008A11B3270A128A11831203134808A90030
:1008F8004708A80028083207B20029080318290A5F
:100908003307B30000300A128A1551260A128A11D9
:10091800831203133308C9003208C8000A128A1167
:100928006F250A128A115F2C83120313C601C701AF
:10093800C80100300A128A153F270A128A11831249
:100948000313C701C70A12300A128A11B3270A1201
:100958008A1104308312031347064804031D642DCB
:10096800B201B301AA01AB012B08803AFF00803025
:100978007F02031DC12C04302A020318592DFA30B6
:1009880083120313E4006408C600FF30E50065081D
:10099800C700FF30E6006608C80000300A128A1552
:1009A80017270A128A11831203132508803AFF00B9
:1009B8007F307F02031DE22CA7302402031CF72C92
:1009C800023083120313E4006408C70014300A12CB
:1009D8008A11B3270A128A11831203134808A50043
:1009E8004708A400D72CFA3083120313E4006408E4
:1009F800C6007F30E5006508C700FF30E6006608DE
:100A0800C80000300A128A1517270A128A118312A1
:100A180003133308803AFF0083307F02031D162D2D
:100A2800E83032020318442D023083120313E40025
:100A38006408C70013300A128A11B3270A128A11F0
:100A4800831203134808A9004708A800280832079A
:100A5800B20029080318290A3307B30000300A1224
:100A68008A1551260A128A11831203133308C90002
:100A78003208C8000A128A116F250A128A110B2D32
:100A880083120313B201B3010130AA070318AB0A9A
:100A98000030AB072B08803AFF0080307F02031D2F
:100AA800572D04302A02031CC32C83120313C601DA
:100AB800C701C80100300A128A153F270A128A1195
:100AC80083120313C701C70A12300A128A11B32707
:100AD8000A128A11E02B831203134908D30048082D
:100AE800D200CA01CB01CC01CD01CE01CF01D0018A
:100AF800D10127305302103003195202031CA12DD3
:100B08005208F03ED20053080318013ED83ED300E5
:100B18000130D0070318D10A0030D1077D2D5208C3
:100B2800183ED20053080318013EFC3ED3000130A2
:100B3800CE070318CF0A0030CF0703305302E8303E
:100B480003195202031CB72D932D52089C3ED20064
:100B580053080318013EFF3ED3000130CC070318A9
:100B6800CD0A0030CD070030530264300319520219
:100B7800031CCD2DA92D5208F63ED20053080318A8
:100B8800013EFF3ED3000130CA070318CB0A0030EC
:100B9800CB07003053020A30031952020318BF2D45
:100BA800500851040319DF2D5008303E0A128A15E7
:100BB8007F260A128A11831203134E084F04031961
:100BC800EC2D4E08303E0A128A157F260A128A1129
:100BD800831203134C08303E0A128A157F260A1224
:100BE8008A11831203134A08303E0A128A157F2697
:100BF8000A128A11831203135208303E0A128A1508
:100C08007F26080083120313D501CE1F182ECB09A7
:100C1800CC09CD09CE09CB0A0319CC0A0319CD0A90
:100C28000319CE0AD501D50AD21F292ECF09D0091A
:100C3800D109D209CF0A0319D00A0319D10A031915
:100C4800D20A0130D3005308D5060030D90000304D
:100C5800D8000030D7000030D6004E084D044C04B0
:100C68004B0403197E2ED401D40ACE1B492E013021
:100C7800D3000310CB0DCC0DCD0DCE0DD30B3D2ED7
:100C88000130D3005308D407392E0130D3000310A4
:100C9800D60DD70DD80DD90DD30B4B2E4E085202B9
:100CA800031D602E4D085102031D602E4C08500292
:100CB800031D602E4B084F02031C712E4B08CF02F8
:100CC8004C08031C4C0FD0024D08031C4D0FD102D9
:100CD8004E08031C4E0FD202561401300310CE0CDE
:100CE800CD0CCC0CCB0CFF3E031D722E0130D40270
:100CF800031D492E550803198C2ED609D709D80982
:100D0800D909D60A0319D70A0319D80A0319D90A1F
:100D18005908CE005808CD005708CC005608CB001B
:100D28000800831203134308031D9C2EBE01BE0A4C
:100D3800FF30C5004508C307BC2E1B30AE2E173048
:100D4800AE2E3530AE2E2730AE2E2B30AE2E2E30B6
:100D5800AE2E3C3087000130FB02D62E1E308700B5
:100D68000730C5004508FB00D62E39308700D62E3F
:100D78007B08003A0319B22E013A0319AD2E033A43
:100D88000319AB2E013A0319A92E073A0319A72E06
:100D9800013A0319A52E033A0319A32E013A0319A0
:100DA800A12EB92E1430C6007930C500C50BDA2E35
:100DB800C60BDA2EDF2E080083120313430A031929
:100DC800BE010130C5004508C307042F2E30F72E99
:100DD8002B30F72E2730F72E3530F72E1730F72E19
:100DE8001B30F72E1E3087000130C5004508FB0771
:100DF8001E2F3C308700FB011E2F393087001E2F25
:100E08007B08003A0319EA2E013A0319EC2E033A3B
:100E18000319EE2E013A0319F02E073A0319F22EA0
:100E2800013A0319F42E033A0319F62E013A03196D
:100E3800FD2E012F1430C6007930C500C50B222FB6
:100E4800C60B222F272F08000B1D632F0B116430B0
:100E580081000130B0070318B10A0030B107071547
:100E68000000831203130711E830F0000330F1008B
:100E78003108F3003008F2000A128A1590270A1286
:100E88008A1170087104031D4F2F10308312031349
:100E98008606B001B101831203130618572F0130DB
:100EA800F6007608B80786185D2F0130F600760838
:100EB800B7070619632F0130F6007608B6077A08D7
:100EC800FF0079088A0078088400770E8300FE0EF8
:100ED8007E0E0900831203139E01831603139E01DD
:100EE800831203131F151F19772F1E08C500C6018B
:100EF8000310C50DC60D0310C50DC60D4508A2008B
:100F08004608A300A52F83122208013EA200230849
:100F18000318013E003EA300080083122208023E87
:100F2800A20023080318013E003EA3000800831214
:100F38002208033EA20023080318013E003EA30036
:100F48000800831603131E08403A0319872FC03A76
:100F58000319912F403A03199B2FB22F08008312CF
:100F68000313CD008E300A128A1564260A128A11DC
:100F7800831203134D080A128A1564260A128A116D
:100F88000230831203134706031DD52F0A128A1550
:100F98005A260A128A1183120313C9004908C40089
:100FA800D62FC4010A128A155A2683120313C900C0
:100FB8004908BD004408C900CA014908CA00C90156
:100FC8003D084907CB000030031801304A07CC0020
:100FD8004C08C8004B08C700080083120313C70059
:100FE800C6018C11470893008C1DF82F1308C50003
:080FF8004508C6008C11080039
:101C8E00E834033464008001840A04060319003426
:101C9E0004064A2E83120313C800C81748080A12F6
:101CAE008A1592260800831203138C1E5A2E1A08C8
:101CBE00C5004508C6004608080083120313C50078
:101CCE0083160313981C672E83120313450899007D
:101CDE0008002430831603139800983083120313E0
:101CEE00980014308316031399000B178B170800F6
:101CFE0083120313C70009118910091447088800BD
:101D0E00091509110730C6007D30C500C50B8D2E93
:101D1E00C60B8D2E080083120313C70009118910FC
:101D2E00091047088800091509110D30C600FB304F
:101D3E00C500C50BA02EC60BA02EA52E0800831223
:101D4E0003138501FF308316031385008930831238
:101D5E0003139F000230831603139F005330831228
:101D6E000313C500C50BB92E080083160313860195
:101D7E00403094002030831203139400D030831629
:101D8E000313870003308312031387000430831676
:101D9E00031381008B168B1708000A128A116E2707
:101DAE000A128A1580300A128A1551260A128A15CD
:101DBE00831203132308C9002208C8000A128A11CD
:101DCE006F250A128A15831203132308DB002208DB
:101DDE00DA000A128A112F20080083120313C90198
:101DEE00CA01451C002F4708C9070318CA0A48082C
:101DFE00CA0701300310C70DC80DFF3E031D012F8A
:101E0E0001300310C60CC50CFF3E031D082F4508FC
:101E1E004604031DF82E4A08C6004908C5000800EE
:101E2E0083120313C90089300A128A1564260A1216
:101E3E008A158312031349080A128A1564260A1298
:101E4E008A158312031346080A128A1564260A128B
:101E5E008A158312031347080A128A1564260A127A
:101E6E008A158312031348080A128A15642608007D
:101E7E0083120313C90091300A128A1564260A12BE
:101E8E008A158312031349080A128A1564260A1248
:101E9E008A158312031346080A128A1564260A123B
:101EAE008A158312031347080A128A1564260A122A
:101EBE008A158312031348080A128A15642608002D
:101ECE000230831603139F008312031388018901C6
:101EDE00831603138801890101300A128A1592268E
:101EEE000A128A1538300A128A1592260A128A1593
:101EFE000C300A128A1592260A128A1506300A1218
:101F0E008A1592260A128A1502300A128A1592260C
:101F1E000800700871040319BD2FF501F50AF11BB5
:101F2E00A42F01300310F00DF10DFF3E031D992F6C
:101F3E000130F4007408F507962F71087302031D23
:101F4E00AA2F70087202031CB22F7008F2027108D9
:101F5E00031CF303F30201300310F10CF00CFF3EEF
:101F6E00031DB32F0130F502031DA42F7308F100DA
:101F7E007208F000080083120313D001D1014B0840
:101F8E004C040319FB2FD201D20ACC1BDA2F0130DD
:101F9E000310CB0DCC0DFF3E031DCF2F0130CF0014
:101FAE004F08D207CC2F01300310D00DD10DFF3EBC
:101FBE00031DDB2F4C084E02031DE72F4B084D026D
:101FCE00031CF02F4B08CD024C08031CCE03CE028F
:101FDE00501401300310CC0CCB0CFF3E031DF12F1F
:101FEE000130D202031DDA2F5108CC005008CB006D
:021FFE000800D9
:02400E003A3F37
:00000001FF
