:060000000A128A11122809
:10000800FE00030EF6000408F7000A08F800831241
:1000180003137F08F9000A128A1172290A128A1139
:100028001528FC01FA01FB0183120313B801B90179
:10003800BA01BB01BC0183010A128A11BA288312D2
:1000480003132408AE002308AD00A501A601A701EB
:10005800A801A901AA01AB01AC0127302E0210307A
:1000680003192D02031C55282D08F03EAD002E085B
:100078000318013ED83EAE000130AB070318AC0AA6
:100088000030AC0731282D08183EAD002E080318A3
:10009800013EFC3EAE000130A9070318AA0A003051
:1000A800AA0703302E02E83003192D02031C6B281F
:1000B80047282D089C3EAD002E080318013EFF3E40
:1000C800AE000130A7070318A80A0030A8070030BF
:1000D8002E02643003192D02031C81285D282D0887
:1000E800F63EAD002E080318013EFF3EAE0001307B
:1000F800A5070318A60A0030A60700302E020A300A
:1001080003192D02031873282B082C0403199328AC
:100118002B08303E0A128A11F8210A128A1183121A
:10012800031329082A040319A0282908303E0A12B3
:100138008A11F8210A128A11831203132708303E04
:100148000A128A11F8210A128A1183120313250848
:10015800303E0A128A11F8210A128A1183120313F7
:100168002D08303E0A128A11F82108008312031361
:10017800B101B201B301B401B501B6010A128A1185
:10018800CC210A128A110A128A111A220A128A1119
:100198000A128A11A3210A128A110D30831203133D
:1001A800AF002F08B70037080A128A110B220A126B
:1001B8008A1180300A128A1129220A128A1184307F
:1001C8000A128A1129220A128A1188300A128A11FF
:1001D80029220A128A1104300A128A1129220A12C3
:1001E8008A118E300A128A1129220A128A111330B2
:1001F8000A128A1129220A128A110A128A11352230
:100208000A128A11831203133C08AF00B0012F08A9
:10021800B1003008B2000A128A1135220A128A1176
:10022800831203133C08AF00B0012F08B300300855
:10023800B4003208B0003108AF000310AF0DB00DA4
:100248000310AF0DB00D33082F07B500340803189D
:10025800340A3007B6003608A4003508A3000A128D
:100268008A1123200A128A117C1C38290130831232
:10027800031386067C1038297008710403196D2948
:10028800F501F50AF11B542901300310F00DF10DA9
:10029800FF3E031D49290130F4007408F50746297B
:1002A80071087302031D5A2970087202031C62291F
:1002B8007008F2027108031CF303F3020130031003
:1002C800F10CF00CFF3E031D63290130F502031DFC
:1002D80054297308F1007208F00008000B1D9629D4
:1002E8000B11643081000130FA070318FB0A003053
:1002F800FB0707150000831203130711E830F0000D
:100308000330F1007B08F3007A08F2000A128A1120
:1003180040210A128A1170087104031D96297C1461
:10032800FA01FB01790883120313FF0078088A0099
:1003380077088400760E8300FE0E7E0E09000230D8
:10034800831603139F008312031388018901831600
:1003580003138801890101300A128A11E4210A1263
:100368008A1138300A128A11E4210A128A110C30D3
:100378000A128A11E4210A128A1106300A128A1115
:10038800E4210A128A1102300A128A11E4210800B3
:100398008316031386014030940020308312031320
:1003A8009400D0308316031387000330831203139D
:1003B800870004308316031381008B168B170800FF
:1003C80083120313A200091189100910220888005A
:1003D800091509110D30A100FB30A000A00BF2296E
:1003E800A10BF229F729080083120313A2000911AF
:1003F8008910091422088800091509110730A1007D
:100408007D30A000A00B062AA10B062A0800831243
:100418000313A200A1018C11220893008C1D122A3B
:100428001308A0002008A1008C11080024308316AE
:10043800031398009830831203139800143083161E
:10044800031399000B178B17080083120313A000DE
:1004580083160313981C2C2A83120313200899006F
:100468000800831203138C1E352A1A08A0002008DE
:04047800A1000800D7
:02400E003A3F37
:00000001FF
