:060000000A128A11122809
:10000800FE00030EF7000408F8000A08F90083123E
:1000180003137F08FA000A128A11472F0A128A115D
:1000280015280A128A11FB270A128A11EA000A12F5
:100038008A11FC270A128A11EB00831320308400EE
:1000480047300A128A156C26FC01FD01FB01830169
:100058000A128A116D2B0230831203135D020530D8
:1000680003195C020318982802305D020130031955
:100078005C02031C98280030D0000030CF0000300C
:10008800CE000430CD00F430DE00C930DF0000308F
:10009800E0000030E1005D08C8005C08C70064307B
:1000A800C9000030CA000A128A1548270A128A11A4
:1000B800831203134708E2004808E300E401E5015E
:1000C800E209E309E409E509E20A0319E30A031965
:1000D800E40A0319E50A6208DE0763080318630FD8
:1000E80076287728DF0764080318640F7C287D28A2
:1000F800E00765080318650AE1076108D40060088D
:10010800D3005F08D2005E08D1000A128A11C82500
:100118000A128A11831203134D08643EA0004E0888
:100128000318013E003EA10002305D0201300319B0
:100138005C020318FF2801305D02893003195C0254
:10014800031CFF280030D0000030CF000030CE0064
:100158007830CD006430DE00C830DF000030E000C9
:100168000030E1005D08C8005C08C7006430C900C1
:100178000030CA000A128A1548270A128A11831207
:1001880003134708E2004808E300E401E501E20937
:10019800E309E409E509E20A0319E30A0319E40A91
:1001A8000319E50A6208DE0763080318630FDD28F0
:1001B800DE28DF0764080318640FE328E428E00753
:1001C80065080318650AE1076108D4006008D300D0
:1001D8005F08D2005E08D1000A128A11C8250A12E7
:1001E8008A11831203134D08C83EA0004E08031855
:1001F800013E003EA10001305D02893003195C0216
:100208000318662901305D022A3003195C02031CB9
:1002180066290030D0000030CF000030CE005F30BB
:10022800CD008430DE009930DF000030E00000307F
:10023800E1005D08C8005C08C7006430C9000030F0
:10024800CA000A128A1548270A128A118312031350
:100258004708E2004808E300E401E501E209E30990
:10026800E409E509E20A0319E30A0319E40A031990
:10027800E50A6208DE0763080318630F4429452965
:10028800DF0764080318640F4A294B29E00765084B
:100298000318650AE1076108D4006008D3005F0805
:1002A800D2005E08D1000A128A11C8250A128A11E2
:1002B800831203134D082C3EA0004E080318013E7C
:1002C800013EA10001305D022A3003195C020318C7
:1002D800A52900305D02EC3003195C02031CA52936
:1002E8003E30CD000030CE005D08C8005C08C70075
:1002F8006430C9000030CA000A128A1548270A1259
:100308008A11831203134709DE004809DF00DE0A59
:100318000319DF0A5E08683ECF005F080318013E34
:10032800743ED0000A128A15C2270A128A11831253
:1003380003134D08903EA0004E080318013E013EED
:10034800A10000305D02EC3003195C020318E429B7
:1003580000305D02C23003195C02031CE4292A3014
:10036800CD000030CE005D08C8005C08C7006430CE
:10037800C9000030CA000A128A1548270A128A11D1
:10038800831203134709DE004809DF00DE0A031958
:10039800DF0A5E08303ECF005F080318013E5C3E6E
:1003A800D0000A128A15C2270A128A11831203136F
:1003B8004D08F43EA0004E080318013E013EA1007E
:1003C80000305D02C23003195C020318232A003092
:1003D8005D02A83003195C02031C232A1A30CD00E1
:1003E8000030CE005D08C8005C08C7006430C90052
:1003F8000030CA000A128A1548270A128A11831285
:1004080003134709DE004809DF00DE0A0319DF0A83
:100418005E08C83ECF005F080318013E4B3ED0007F
:100428000A128A15C2270A128A11831203134D0869
:10043800583EA0004E080318013E023EA1000030BD
:100448005D02A83003195C020318622A00305D02BD
:10045800903003195C02031C622A1830CD0000306A
:10046800CE005D08C8005C08C7006430C9000030D1
:10047800CA000A128A1548270A128A11831203131E
:100488004709DE004809DF00DE0A0319DF0A5E08B3
:10049800A03ECF005F080318013E413ED0000A127B
:1004A8008A15C2270A128A11831203134D08BC3E0B
:1004B800A0004E080318013E023EA10000305D0274
:1004C800903003195C020318A12A00305D028130C4
:1004D80003195C02031CA12A0F30CD000030CE00A6
:1004E8005D08C8005C08C7006430C9000030CA0055
:1004F8000A128A1548270A128A1183120313470918
:10050800DE004809DF00DE0A0319DF0A5E08403E04
:10051800CF005F080318013E383ED0000A128A1542
:10052800C2270A128A11831203134D08203EA00025
:100538004E080318013E033EA10000305D028130E1
:1005480003195C020318E02A00305D026E300319BB
:100558005C02031CE02A1330CD000030CE005D0899
:10056800C8005C08C7006430C9000030CA000A121D
:100578008A1548270A128A11831203134709DE00D5
:100588004809DF00DE0A0319DF0A5E08643ECF006F
:100598005F080318013E323ED0000A128A15C227AE
:1005A8000A128A11831203134D08B63EA0004E08A2
:1005B8000318013E033EA10000305D026E300319AE
:1005C8005C0203181F2B00305D02623003195C02C5
:1005D800031C1F2B0C30CD000030CE005D08C80076
:1005E8005C08C7006430C9000030CA000A128A15C6
:1005F80048270A128A11831203134709DE004809A3
:10060800DF00DE0A0319DF0A5E08F83ECF005F0844
:100618000318013E2A3ED0000A128A15C2270A1280
:100628008A11831203134D084C3EA0004E0803188C
:10063800013E043EA10000305D02623003195C02F5
:1006480003185C2B00305D025A3003195C02031C4E
:100658005C2B5D08C8005C08C7006430C900003026
:10066800CA000A128A1548270A128A11831203132C
:100678004709DE004809DF00DE0A0319DF0A5E08C1
:10068800483EE0005F080318013E263EE1000310E3
:10069800E10CE00C0310E10CE00C0310E10CE00CA1
:1006A8006008E23EA00061080318013E043EA10074
:1006B80000305D025A3003195C02031C6A2B0230B9
:1006C8005D02053003195C02031C0800A001A101AA
:1006D80008007F3083120313E800D430E700AE30FF
:1006E800E600E60B752BE70B752BE80B752B7C2BBF
:1006F8000A128A15D8260A128A110A128A157D2624
:100708000A128A110A128A11D2270A128A110A12A7
:100718008A15C2260A128A1101308316031386002D
:100728000D3083120313E6006608E90069080A120F
:100738008A158C260A128A118312031386111A301D
:10074800E8005E30E7008630E600E60BA92BE70BF1
:10075800A92BE80BA92B000080300A128A15F02675
:100768000A128A111A3083120313E8005E30E70078
:100778008630E600E60BBE2BE70BBE2BE80BBE2B44
:10078800000084300A128A15F0260A128A111A30DB
:1007980083120313E8005E30E7008630E600E60BBC
:1007A800D32BE70BD32BE80BD32B000083120313B7
:1007B80086153D08CB003C08CA000A128A1131256B
:1007C8000A128A110A30831203133F020318861C87
:1007D800452CAA01AB012B08803AFF0081307F022B
:1007E800031DF82B90302A020318282C0A128A11AC
:1007F800B4260A128A110A128A1528270A128A119F
:100808008312031323086B02031D0C2C22086A02AF
:100818000318172C2308EB002208EA004408B60046
:10082800B701B61BB7030130AA070318AB0A00309B
:10083800AB072B08803AFF0081307F02031D262C6E
:1008480090302A02031CFA2B831203134408AA00CF
:10085800AB01AA1BAB0337082B06031D352C360842
:100868002A060319452C0A128A11FF260A128A1130
:10087800013083120313AA070318AB0A0030AB0731
:100888002F2C0A303E020318061D942C0130CB0091
:100898000030CC00C830CD000030CE007F30CF0013
:1008A8000030D000FF30D1000030D2000A128A1583
:1008B8006B270A128A11831203133D08803AFF003E
:1008C8008F307F02031D6A2CA1303C0203187F2C55
:1008D800013083120313E6006608C207143042028F
:1008E800031C5F2C0A128A1157260A128A118312D6
:1008F8000313C2015F2C003083120313CB00CC001A
:100908000030CD00CE007F30CF000030D000FF3067
:10091800D1000030D2000A128A156B270A128A11F8
:100928000A308312031340020318061CE62BBC018D
:10093800BD01AA01AB012B08803AFF0080307F027D
:10094800031DA82C04302A0203181B2D0030831223
:100958000313CB00CC00FA30CD000030CE00FF30BE
:10096800CF000030D000FF30D1000030D2000A1292
:100978008A156B270A128A110D3083120313E800B7
:10098800AF30E700C130E600E60BC82CE70BC82CF7
:10099800E80BC82C000083120313BC01BD013D08FD
:1009A800803AFF0083307F02031DDC2CE8303C02D4
:1009B8000318062D003083120313CB00CC00FA3045
:1009C800CD000030CE007F30CF000030D000FF30A7
:1009D800D1000030D2000A128A156B270A128A1138
:1009E8000A128A1157260A128A11831203133D0824
:1009F800803AFF0083307F02031D042DE8303C025B
:100A0800031CDE2C83120313BC01BD010130AA07AD
:100A18000318AB0A0030AB072B08803AFF00803080
:100A28007F02031D192D04302A02031CAA2C003052
:100A380083120313CB00CC000030CD00CE007F30F2
:100A4800CF000030D000FF30D1000030D2000A12B1
:100A58008A156B270A128A11E62B831203134B0897
:100A6800D5004A08D400CC01CD01CE01CF01D00178
:100A7800D101D201D3012730550210300319540295
:100A8800031C632D5408F03ED40055080318013E9A
:100A9800D83ED5000130D2070318D30A0030D30757
:100AA8003F2D5408183ED40055080318013EFC3E5B
:100AB800D5000130D0070318D10A0030D107033020
:100AC8005502E83003195402031C792D552D54089A
:100AD8009C3ED40055080318013EFF3ED500013066
:100AE800CE070318CF0A0030CF0700305502643014
:100AF80003195402031C8F2D6B2D5408F63ED400A5
:100B080055080318013EFF3ED5000130CC070318F5
:100B1800CD0A0030CD07003055020A3003195402BF
:100B28000318812D520853040319A12D5208303E91
:100B38000A128A159B260A128A1183120313500877
:100B480051040319AE2D5008303E0A128A159B260F
:100B58000A128A11831203134E08303E0A128A15AC
:100B68009B260A128A11831203134C08303E0A127C
:100B78008A159B260A128A11831203135408303EE1
:100B88000A128A159B26080083120313D701D01F67
:100B9800DA2DCD09CE09CF09D009CD0A0319CE0A1D
:100BA8000319CF0A0319D00AD701D70AD41FEB2D8E
:100BB800D109D209D309D409D10A0319D20A0319D0
:100BC800D30A0319D40A0130D5005508D7060030D6
:100BD800DB000030DA000030D9000030D8005008BF
:100BE8004F044E044D040319402ED601D60AD01BDB
:100BF8000B2E0130D5000310CD0DCE0DCF0DD00D2D
:100C0800D50BFF2D0130D5005508D607FB2D013037
:100C1800D5000310D80DD90DDA0DDB0DD50B0D2E2F
:100C280050085402031D222E4F085302031D222E82
:100C38004E085202031D222E4D085102031C332E6A
:100C48004D08D1024E08031C4E0FD2024F08031C58
:100C58004F0FD3025008031C500FD4025814013010
:100C68000310D00CCF0CCE0CCD0CFF3E031D342E40
:100C78000130D602031D0B2E570803194E2ED80932
:100C8800D909DA09DB09D80A0319D90A0319DA0AD2
:100C98000319DB0A5B08D0005A08CF005908CE00B8
:100CA8005808CD0008008E300A128A15F0260A125C
:100CB8008A1113300A128A15F0260A128A11413055
:100CC80083120313D700EE30D600D60B692ED70B4C
:100CD800692E00000A128A1509270A128A1183123E
:100CE80003134808C6004708C5004130D700EE3056
:100CF800D600D60B7D2ED70B7D2E00000A128A1542
:100D080009270A128A11831203134808AD004708FD
:100D1800AC004608D7004508D6005608D700D601CB
:100D28002C085607A8002D0803182D0A5707A900F4
:100D380028083C07BC0029080318290A3D07BD00FC
:100D4800C0300A128A1574260A128A1183120313F4
:100D58003D08CB003C08CA000A128A113125080058
:100D6800831203134408031DBB2EC301C30AFF30BB
:100D7800C7004708C407DB2E1B30CD2E1730CD2EF9
:100D88003530CD2E2730CD2E2B30CD2E2E30CD2EFA
:100D98003C3087000130FC02F52E1E3087000730FA
:100DA800C7004708FC00F52E39308700F52E7C086F
:100DB800003A0319D12E013A0319CC2E033A03192C
:100DC800CA2E013A0319C82E073A0319C62E013A4A
:100DD8000319C42E033A0319C22E013A0319C02E6F
:100DE800D82E1430C8007930C700C70BF92EC80BAD
:100DF800F92EFE2E080083120313440A0319C301B7
:100E08000130C7004708C407232F2E30162F2B3078
:100E1800162F2730162F3530162F1730162F1B3068
:100E2800162F1E3087000130C7004708FC073D2FEA
:100E38003C308700FC013D2F393087003D2F7C086E
:100E4800003A0319092F013A03190B2F033A031922
:100E58000D2F013A03190F2F073A0319112F013AE1
:100E68000319132F033A0319152F013A03191C2FDD
:100E7800202F1430C8007930C700C70B412FC80B8A
:100E8800412F462F08000B1D822F0B116430810063
:100E98000130BA070318BB0A0030BB07071500006A
:100EA800831203130711E830F0000330F1003B0808
:100EB800F3003A08F2000A128A1590270A128A11DA
:100EC80070087104031D6E2F1030831203138606F9
:100ED800BA01BB01831203130618762F0130F600FE
:100EE8007608C00786187C2F0130F6007608BF0701
:100EF8000619822F0130F6007608BE077A08FF002F
:100F080079088A0078088400770E8300FE0E7E0E2A
:100F18000900831203139E01831603139E01831293
:100F280003131F151F19962F1E08C700C8010310A9
:100F3800C70DC80D0310C70DC80D4708A200480803
:100F4800A300C42F83122208013EA200230803181D
:100F5800013E003EA300080083122208023EA200C0
:100F680023080318013E003EA3000800831222084C
:100F7800033EA20023080318013E003EA300080018
:100F8800831603131E08403A0319A62FC03A031903
:100F9800B02F403A0319BA2FD12F08000230831618
:100FA80003139F0083120313880189018316031317
:100FB8008801890101300A128A15AE260A128A119F
:100FC80038300A128A15AE260A128A110C300A1213
:100FD8008A15AE260A128A1106300A128A15AE261A
:100FE8000A128A1102300A128A15AE260800E8345D
:020FF8000334C0
:101CD80064008001840A04060319003404066D2E8A
:101CE80083120313CA00CA174A080A128A15AE26B5
:101CF80008002430831603139800983083120313C6
:101D0800980014308316031399000B178B170800DB
:101D180083120313C900C8018C11490893008C1D54
:101D2800932E1308C7004708C8008C1108008312B7
:101D38000313C900091189100914490888000915F5
:101D480009110730C8007D30C700C70BA92EC80B82
:101D5800A92E080083120313C9000911891009105C
:101D680049088800091509110D30C800FB30C70063
:101D7800C70BBC2EC80BBC2EC12E08008312031340
:101D88008501FF30831603138500893083120313FE
:101D98009F000230831603139F00533083120313EE
:101DA800C700C70BD52E08008316031386014030E1
:101DB80094002030831203139400D0308316031349
:101DC800870003308312031387000430831603133C
:101DD80081008B168B17080083120313CA00831621
:101DE8000313981CF32E831203134A089900033037
:101DF800C9008A30C8005630C700C70B012FC80B6E
:101E0800012FC90B012F082F0800831203138C1E02
:101E1800092F1A08C900CA014908CC004A08CD0090
:101E28000330CB008A30CA005630C900C90B1A2FBC
:101E3800CA0B1A2FCB0B1A2F212F831203134D080D
:101E4800C8004C08C70008000A128A118D270A1218
:101E58008A1580300A128A1574260A128A15831286
:101E680003132308CB002208CA000A128A1131255D
:101E78000A128A15831203132308DD002208DC00E6
:101E88000A128A112F20080083120313CB01CC01F8
:101E9800471C542F4908CB070318CC0A4A08CC071B
:101EA80001300310C90DCA0DFF3E031D552F013027
:101EB8000310C80CC70CFF3E031D5C2F47084804DD
:101EC800031D4C2F4C08C8004B08C7000800893078
:101ED8000A128A15F0260A128A15831203134B0870
:101EE8000A128A15F0260A128A15831203134D085E
:101EF8000A128A15F0260A128A15831203134F084C
:101F08000A128A15F0260A128A1583120313510839
:101F18000A128A15F0260800700871040319BD2FEB
:101F2800F501F50AF11BA42F01300310F00DF10D96
:101F3800FF3E031D992F0130F4007408F507962F12
:101F480071087302031DAA2F70087202031CB22FB6
:101F58007008F2027108031CF303F3020130031046
:101F6800F10CF00CFF3E031DB32F0130F502031DE9
:101F7800A42F7308F1007208F000080083120313FD
:101F8800D201D3014D084E040319FB2FD401D40A02
:101F9800CE1BDA2F01300310CD0DCE0DFF3E031DF1
:101FA800CF2F0130D1005108D407CC2F01300310B6
:101FB800D20DD30DFF3E031DDB2F4E085002031D2B
:101FC800E72F4D084F02031CF02F4D08CF024E0893
:101FD800031CD003D002521401300310CE0CCD0CD8
:101FE800FF3E031DF12F0130D402031DDA2F5308E1
:081FF800CE005208CD000800E4
:02400E003A3F37
:00000001FF
