:060000000A128A11122809
:10000800FE00030EF7000408F8000A08F90083123E
:1000180003137F08FA000A128A11352F0A128A116F
:1000280015280A128A11FE270A128A11EA000A12F2
:100038008A11FF270A128A11EB00831320308400EB
:1000480047300A128A153A26FB01FC01FD0183019B
:100058000A128A116D2B0230831203135D020530D8
:1000680003195C020318982802305D020130031955
:100078005C02031C98280030D0000030CF0000300C
:10008800CE000430CD00F430DE00C930DF0000308F
:10009800E0000030E1005D08C8005C08C70064307B
:1000A800C9000030CA000A128A15F4260A128A11F9
:1000B800831203134708E2004808E300E401E5015E
:1000C800E209E309E409E509E20A0319E30A031965
:1000D800E40A0319E50A6208DE0763080318630FD8
:1000E80076287728DF0764080318640F7C287D28A2
:1000F800E00765080318650AE1076108D40060088D
:10010800D3005F08D2005E08D1000A128A111326B4
:100118000A128A11831203134D08643EA0004E0888
:100128000318013E003EA10002305D0201300319B0
:100138005C020318FF2801305D02893003195C0254
:10014800031CFF280030D0000030CF000030CE0064
:100158007830CD006430DE00C830DF000030E000C9
:100168000030E1005D08C8005C08C7006430C900C1
:100178000030CA000A128A15F4260A128A1183125C
:1001880003134708E2004808E300E401E501E20937
:10019800E309E409E509E20A0319E30A0319E40A91
:1001A8000319E50A6208DE0763080318630FDD28F0
:1001B800DE28DF0764080318640FE328E428E00753
:1001C80065080318650AE1076108D4006008D300D0
:1001D8005F08D2005E08D1000A128A1113260A129B
:1001E8008A11831203134D08C83EA0004E08031855
:1001F800013E003EA10001305D02893003195C0216
:100208000318662901305D022A3003195C02031CB9
:1002180066290030D0000030CF000030CE005F30BB
:10022800CD008430DE009930DF000030E00000307F
:10023800E1005D08C8005C08C7006430C9000030F0
:10024800CA000A128A15F4260A128A1183120313A5
:100258004708E2004808E300E401E501E209E30990
:10026800E409E509E20A0319E30A0319E40A031990
:10027800E50A6208DE0763080318630F4429452965
:10028800DF0764080318640F4A294B29E00765084B
:100298000318650AE1076108D4006008D3005F0805
:1002A800D2005E08D1000A128A1113260A128A1196
:1002B800831203134D082C3EA0004E080318013E7C
:1002C800013EA10001305D022A3003195C020318C7
:1002D800A52900305D02EC3003195C02031CA52936
:1002E8003E30CD000030CE005D08C8005C08C70075
:1002F8006430C9000030CA000A128A15F4260A12AE
:100308008A11831203134709DE004809DF00DE0A59
:100318000319DF0A5E08683ECF005F080318013E34
:10032800743ED0000A128A15C2270A128A11831253
:1003380003134D08903EA0004E080318013E013EED
:10034800A10000305D02EC3003195C020318E429B7
:1003580000305D02C23003195C02031CE4292A3014
:10036800CD000030CE005D08C8005C08C7006430CE
:10037800C9000030CA000A128A15F4260A128A1126
:10038800831203134709DE004809DF00DE0A031958
:10039800DF0A5E08303ECF005F080318013E5C3E6E
:1003A800D0000A128A15C2270A128A11831203136F
:1003B8004D08F43EA0004E080318013E013EA1007E
:1003C80000305D02C23003195C020318232A003092
:1003D8005D02A83003195C02031C232A1A30CD00E1
:1003E8000030CE005D08C8005C08C7006430C90052
:1003F8000030CA000A128A15F4260A128A118312DA
:1004080003134709DE004809DF00DE0A0319DF0A83
:100418005E08C83ECF005F080318013E4B3ED0007F
:100428000A128A15C2270A128A11831203134D0869
:10043800583EA0004E080318013E023EA1000030BD
:100448005D02A83003195C020318622A00305D02BD
:10045800903003195C02031C622A1830CD0000306A
:10046800CE005D08C8005C08C7006430C9000030D1
:10047800CA000A128A15F4260A128A118312031373
:100488004709DE004809DF00DE0A0319DF0A5E08B3
:10049800A03ECF005F080318013E413ED0000A127B
:1004A8008A15C2270A128A11831203134D08BC3E0B
:1004B800A0004E080318013E023EA10000305D0274
:1004C800903003195C020318A12A00305D028130C4
:1004D80003195C02031CA12A0F30CD000030CE00A6
:1004E8005D08C8005C08C7006430C9000030CA0055
:1004F8000A128A15F4260A128A118312031347096D
:10050800DE004809DF00DE0A0319DF0A5E08403E04
:10051800CF005F080318013E383ED0000A128A1542
:10052800C2270A128A11831203134D08203EA00025
:100538004E080318013E033EA10000305D028130E1
:1005480003195C020318E02A00305D026E300319BB
:100558005C02031CE02A1330CD000030CE005D0899
:10056800C8005C08C7006430C9000030CA000A121D
:100578008A15F4260A128A11831203134709DE002A
:100588004809DF00DE0A0319DF0A5E08643ECF006F
:100598005F080318013E323ED0000A128A15C227AE
:1005A8000A128A11831203134D08B63EA0004E08A2
:1005B8000318013E033EA10000305D026E300319AE
:1005C8005C0203181F2B00305D02623003195C02C5
:1005D800031C1F2B0C30CD000030CE005D08C80076
:1005E8005C08C7006430C9000030CA000A128A15C6
:1005F800F4260A128A11831203134709DE004809F8
:10060800DF00DE0A0319DF0A5E08F83ECF005F0844
:100618000318013E2A3ED0000A128A15C2270A1280
:100628008A11831203134D084C3EA0004E0803188C
:10063800013E043EA10000305D02623003195C02F5
:1006480003185C2B00305D025A3003195C02031C4E
:100658005C2B5D08C8005C08C7006430C900003026
:10066800CA000A128A15F4260A128A118312031381
:100678004709DE004809DF00DE0A0319DF0A5E08C1
:10068800483EE0005F080318013E263EE1000310E3
:10069800E10CE00C0310E10CE00C0310E10CE00CA1
:1006A8006008E23EA00061080318013E043EA10074
:1006B80000305D025A3003195C02031C6A2B0230B9
:1006C8005D02053003195C02031C0800A001A101AA
:1006D80008007F3083120313E800D430E700AE30FF
:1006E800E600E60B752BE70B752BE80B752B7C2BBF
:1006F8000A128A15BC260A128A110A128A1561265C
:100708000A128A110A128A1567270A128A110A120E
:100718008A15A6260A128A110D3083120313E600E1
:100728006608E90069080A128A1570260A128A11F1
:100738001A3083120313E8005E30E7008630E600C3
:10074800E60BA42BE70BA42BE80BA42B00008030AE
:100758000A128A1555260A128A111A3083120313AF
:10076800E8005E30E7008630E600E60BB92BE70BC1
:10077800B92BE80BB92B000084300A128A155526CC
:100788000A128A111A3083120313E8005E30E70058
:100798008630E600E60BCE2BE70BCE2BE80BCE2BF4
:1007A8000000831203133308CB003208CA000A1270
:1007B8008A117C250A128A110A30831203133A021D
:1007C8000318061C422CEA01EB01AA01AB012B0815
:1007D800803AFF0081307F02031DF42B90302A02FB
:1007E8000318242C0A128A11A2260A128A110A1244
:1007F8008A15D4260A128A118312031323086B025E
:10080800031D082C22086A020318132C2308EB0086
:100818002208EA004508AC00AD01AC1BAD0301306D
:10082800AA070318AB0A0030AB072B08803AFF0071
:1008380081307F02031D222C90302A02031CF62BE4
:10084800831203134508AA00AB01AA1BAB032D08AA
:100858002B06031D312C2C082A060319412C0A12D9
:100868008A11ED260A128A11013083120313AA078E
:100878000318AB0A0030AB072B2CBA01C901C90A0F
:1008880012300A128A11C0270A128A11831203131E
:1008980049034A04031DA32CFA30E6006608C80081
:1008A800C901FA30E7006708CA0000300A128A1541
:1008B8003F270A128A11831203133308803AFF0074
:1008C8008F307F02031D6A2CA03032020318982C47
:1008D800023083120313E6006608C90013300A12B7
:1008E8008A11C0270A128A11831203134A08A90021
:1008F8004908A80028083207B20029080318290A5D
:100908003307B30000300A128A1542260A128A11E8
:10091800831203133308CB003208CA000A128A1163
:100928007C250A128A115F2C83120313C801C9019E
:10093800CA0100300A128A153F270A128A11831247
:100948000313C901C90A12300A128A11C0270A12F0
:100958008A1104308312031349064A04031D712DBA
:10096800B201B301AA01AB015B2D83120313350851
:10097800803AFF007F307F02031DC42CAB30340265
:10098800031CF52CFA3083120313E6006608C8002E
:10099800FF30E7006708C900FF30E8006808CA00B0
:1009A80000300A128A1517270A128A110230831298
:1009B8000313E6006608C90014300A128A11C0271A
:1009C8000A128A11831203134A08A5004908A400D1
:1009D80024083407B40025080318250A3507B5008C
:1009E800B92C83120313B401B501A401A501FA308F
:1009F800E6006608C8007F30E7006708C900FF30D6
:100A0800E8006808CA0000300A128A1517270A1277
:100A18008A11831203133308803AFF0083307F0260
:100A2800031D182DE83032020318462D02308312B8
:100A38000313E6006608C90013300A128A11C0279A
:100A48000A128A11831203134A08A9004908A80048
:100A580028083207B20029080318290A3307B30007
:100A680000300A128A1542260A128A1183120313C9
:100A78003308CB003208CA000A128A117C250A12F0
:100A88008A110D2D83120313B201B301C801C901E4
:100A9800CA0100300A128A153F270A128A1101304A
:100AA80083120313AA070318AB0A0030AB072B08FD
:100AB800803AFF0080307F02031D642D04302A0233
:100AC800031CB92C83120313C801C901CA010030E1
:100AD8000A128A153F270A128A1183120313C901C1
:100AE800C90A12300A128A11C0270A128A11E02B89
:100AF800831203134B08D5004A08D400CC01CD015A
:100B0800CE01CF01D001D101D201D3012730550246
:100B1800103003195402031CAE2D5408F03ED400C3
:100B280055080318013ED83ED5000130D2070318F6
:100B3800D30A0030D3078A2D5408183ED40055082C
:100B48000318013EFC3ED5000130D0070318D10A36
:100B58000030D10703305502E83003195402031C52
:100B6800C42DA02D54089C3ED40055080318013EFE
:100B7800FF3ED5000130CE070318CF0A0030CF075B
:100B880000305502643003195402031CDA2DB62DC7
:100B98005408F63ED40055080318013EFF3ED50020
:100BA8000130CC070318CD0A0030CD0700305502BC
:100BB8000A30031954020318CC2D520853040319A0
:100BC800EC2D5208303E0A128A157F260A128A1125
:100BD80083120313500851040319F92D5008303EAD
:100BE8000A128A157F260A128A11831203134E08E5
:100BF800303E0A128A157F260A128A1183120313BD
:100C08004C08303E0A128A157F260A128A1183126E
:100C180003135408303E0A128A157F2608008312EF
:100C28000313D701D01F252ECD09CE09CF09D0092E
:100C3800CD0A0319CE0A0319CF0A0319D00AD7011E
:100C4800D70AD41F362ED109D209D309D409D10A1B
:100C58000319D20A0319D30A0319D40A0130D5009B
:100C68005508D7060030DB000030DA000030D90024
:100C78000030D80050084F044E044D0403198B2E41
:100C8800D601D60AD01B562E0130D5000310CD0D43
:100C9800CE0DCF0DD00DD50B4A2E0130D5005508FD
:100CA800D607462E0130D5000310D80DD90DDA0D20
:100CB800DB0DD50B582E50085402031D6D2E4F081E
:100CC8005302031D6D2E4E085202031D6D2E4D0852
:100CD8005102031C7E2E4D08D1024E08031C4E0FF4
:100CE800D2024F08031C4F0FD3025008031C500FA9
:100CF800D402581401300310D00CCF0CCE0CCD0CFC
:100D0800FF3E031D7F2E0130D602031D562E5708C5
:100D18000319992ED809D909DA09DB09D80A031960
:100D2800D90A0319DA0A0319DB0A5B08D0005A0842
:100D3800CF005908CE005808CD00080083120313CD
:100D48004508031DA92EC001C00AFF30C700470887
:100D5800C507C92E1B30BB2E1730BB2E3530BB2E16
:100D68002730BB2E2B30BB2E2E30BB2E3C308700BD
:100D78000130FB02E32E1E3087000730C70047080A
:100D8800FB00E32E39308700E32E7B08003A031975
:100D9800BF2E013A0319BA2E033A0319B82E013AA5
:100DA8000319B62E073A0319B42E013A0319B22EC5
:100DB800033A0319B02E013A0319AE2EC62E143089
:100DC800C8007930C700C70BE72EC80BE72EEC2EFA
:100DD800080083120313450A0319C0010130C70034
:100DE8004708C507112F2E30042F2B30042F27302A
:100DF800042F3530042F1730042F1B30042F1E30DA
:100E080087000130C7004708FB072B2F3C308700BD
:100E1800FB012B2F393087002B2F7B08003A031951
:100E2800F72E013A0319F92E033A0319FB2E013A5A
:100E38000319FD2E073A0319FF2E013A0319012F52
:100E4800033A0319032F013A03190A2F0E2F1430FE
:100E5800C8007930C700C70B2F2FC80B2F2F342F8E
:100E680008000B1D702F0B11643081000130B00792
:100E78000318B10A0030B1070715000083120313E5
:100E88000711E830F0000330F1003108F3003008B2
:100E9800F2000A128A1590270A128A117008710442
:100EA800031D5C2F1030831203138606B001B101B5
:100EB800831203130618642F0130F6007608BA0768
:100EC80086186A2F0130F6007608B9070619702FC0
:100ED8000130F6007608B8077A08FF0079088A001A
:100EE80078088400770E8300FE0E7E0E09008312B8
:100EF80003139E01831603139E01831203131F1508
:100F08001F19842F1E08C700C8010310C70DC80D7C
:100F18000310C70DC80D4708A2004808A300B22F48
:100F280083122208013EA20023080318013E003E56
:100F3800A300080083122208023EA2002308031817
:100F4800013E003EA300080083122208033EA200CF
:100F580023080318013E003EA3000800831603136C
:100F68001E08403A0319942FC03A03199E2F403A9D
:100F78000319A82FBF2F080083120313CF008E3048
:100F88000A128A1555260A128A11831203134F086A
:100F98000A128A1555260A128A110230831203137F
:100FA8004906031DE22F0A128A154B260A128A11D6
:100FB80083120313CB004B08C600E32FC6010A12A5
:100FC8008A154B2683120313CB004B08BF00460833
:100FD800CB00CC014B08CC00CB013F084B07CD0020
:100FE8000030031801304C07CE004E08CA004D08E7
:080FF800C9000800E8340334CD
:101C740064008001840A04060319003404063B2E20
:101C840083120313CA00CA174A080A128A15922635
:101C94000800831203138C1E4B2E1A08C700470832
:101CA400C8004808080083120313C70083160313EF
:101CB400981C582E831203134708990008002430F7
:101CC400831603139800983083120313980014307A
:101CD4008316031399000B178B1708008312031341
:101CE400C900C8018C11490893008C1D772E130874
:101CF400C7004708C8008C11080083120313C900E9
:101D040009118910091449088800091509110730B7
:101D1400C8007D30C700C70B8D2EC80B8D2E080060
:101D240083120313C9000911891009104908880096
:101D3400091509110D30C800FB30C700C70BA02ED0
:101D4400C80BA02EA52E0800831203138501FF30B3
:101D54008316031385008930831203139F00023016
:101D6400831603139F00533083120313C700C70B5A
:101D7400B92E0800831603138601403094002030E6
:101D8400831203139400D0308316031387000330A7
:101D940083120313870004308316031381008B1608
:101DA4008B1708000A128A117B270A128A158030C1
:101DB4000A128A1542260A128A158312031323086B
:101DC400CB002208CA000A128A117C250A128A153D
:101DD400831203132308DD002208DC000A128A118F
:101DE4002F20080083120313CB01CC01471C002FC2
:101DF4004908CB070318CC0A4A08CC070130031062
:101E0400C90DCA0DFF3E031D012F01300310C80C7C
:101E1400C70CFF3E031D082F47084804031DF82E76
:101E24004C08C8004B08C700080083120313CB00FA
:101E340089300A128A1555260A128A158312031349
:101E44004B080A128A1555260A128A15831203139F
:101E540048080A128A1555260A128A158312031392
:101E640049080A128A1555260A128A158312031381
:101E74004A080A128A155526080083120313CB0058
:101E840091300A128A1555260A128A1583120313F1
:101E94004B080A128A1555260A128A15831203134F
:101EA40048080A128A1555260A128A158312031342
:101EB40049080A128A1555260A128A158312031331
:101EC4004A080A128A15552608000230831603139D
:101ED4009F00831203138801890183160313880169
:101EE400890101300A128A1592260A128A1538309D
:101EF4000A128A1592260A128A150C300A128A15B9
:101F040092260A128A1506300A128A1592260A1295
:101F14008A1502300A128A15922608007008710484
:101F24000319BD2FF501F50AF11BA42F013003108D
:101F3400F00DF10DFF3E031D992F0130F4007408DC
:101F4400F507962F71087302031DAA2F70087202F9
:101F5400031CB22F7008F2027108031CF303F3028E
:101F640001300310F10CF00CFF3E031DB32F0130C0
:101F7400F502031DA42F7308F1007208F000080095
:101F840083120313D201D3014D084E040319FB2F0E
:101F9400D401D40ACE1BDA2F01300310CD0DCE0D9F
:101FA400FF3E031DCF2F0130D1005108D407CC2FA1
:101FB40001300310D20DD30DFF3E031DDB2F4E085D
:101FC4005002031DE72F4D084F02031CF02F4D084C
:101FD400CF024E08031CD003D00252140130031068
:101FE400CE0CCD0CFF3E031DF12F0130D402031D96
:0C1FF400DA2F5308CE005208CD00080080
:02400E003A3F37
:00000001FF
