:060000000A128A11122809
:10000800FE00030EFA000408FB000A08FC00831235
:1000180003137F08FD000A128A11A72E0A128A11FB
:1000280015280A128A15D7250A128A11ED000A1214
:100038008A15D8250A128A11EE008313203084000D
:100048004A300A128A15D925EF0183010A128A114A
:100058006B2B0230831203136002053003195F0211
:100068000318962802306002013003195F02031C4E
:1000780096280030D3000030D2000030D100043080
:10008800D000F430E100C930E2000030E300003075
:10009800E4006008CB005F08CA006430CC00003080
:1000A800CD000A128A15A7260A128A118312031391
:1000B8004A08E5004B08E600E701E801E509E6091A
:1000C800E709E809E50A0319E60A0319E70A031923
:1000D800E80A6508E10766080318660F742875289A
:1000E800E20767080318670F7A287B28E307680880
:1000F8000318680AE4076408D7006308D600620892
:10010800D5006108D4000A128A1118260A128A1129
:10011800831203135008643EA00051080318013EDF
:10012800003EA10002306002013003195F0203188B
:10013800FD2801306002893003195F02031CFD2885
:100148000030D3000030D2000030D1007830D00029
:100158006430E100C830E2000030E3000030E40021
:100168006008CB005F08CA006430CC000030CD00C6
:100178000A128A15A7260A128A11831203134A083B
:10018800E5004B08E600E701E801E509E609E709AB
:10019800E809E50A0319E60A0319E70A0319E80A50
:1001A8006508E10766080318660FDB28DC28E20704
:1001B80067080318670FE128E228E30768080318AF
:1001C800680AE4076408D7006308D6006208D50007
:1001D8006108D4000A128A1118260A128A11831299
:1001E80003135008C83EA00051080318013E003E02
:1001F800A10001306002893003195F0203186429E5
:10020800013060022A3003195F02031C64290030A0
:10021800D3000030D2000030D1005F30D0008430ED
:10022800E1009930E2000030E3000030E4006008AB
:10023800CB005F08CA006430CC000030CD000A1241
:100248008A15A7260A128A11831203134A08E500A1
:100258004B08E600E701E801E509E609E709E809CE
:10026800E50A0319E60A0319E70A0319E80A650803
:10027800E10766080318660F42294329E207670861
:100288000318670F48294929E30768080318680A0B
:10029800E4076408D7006308D6006208D50061083F
:1002A800D4000A128A1118260A128A11831203131B
:1002B80050082C3EA00051080318013E013EA10041
:1002C800013060022A3003195F020318A3290030A5
:1002D8006002EC3003195F02031CA3293E30D000F2
:1002E8000030D1006008CB005F08CA006430CC0041
:1002F8000030CD000A128A15A7260A128A11831225
:1003080003134A09E1004B09E200E10A0319E20A72
:100318006108683ED20062080318013E743ED300AB
:100328000A128A1584270A128A11831203135008A5
:10033800903EA00051080318013E013EA100003084
:100348006002EC3003195F020318E22900306002F2
:10035800C23003195F02031CE2292A30D0000030A2
:10036800D1006008CB005F08CA006430CC000030C0
:10037800CD000A128A15A7260A128A1183120313BE
:100388004A09E1004B09E200E10A0319E20A61089F
:10039800303ED20062080318013E5C3ED3000A12C8
:1003A8008A1584270A128A11831203135008F43E0F
:1003B800A00051080318013E013EA1000030600270
:1003C800C23003195F020318212A00306002A830E6
:1003D80003195F02031C212A1A30D0000030D10013
:1003E8006008CB005F08CA006430CC000030CD0044
:1003F8000A128A15A7260A128A11831203134A09B8
:10040800E1004B09E200E10A0319E20A6108C83E6B
:10041800D20062080318013E4B3ED3000A128A1527
:1004280084270A128A11831203135008583EA00029
:1004380051080318013E023EA10000306002A830B6
:1004480003195F020318602A003060029030031914
:100458005F02031C602A1830D0000030D100600809
:10046800CB005F08CA006430CC000030CD000A120F
:100478008A15A7260A128A11831203134A09E10072
:100488004B09E200E10A0319E20A6108A03ED20022
:1004980062080318013E413ED3000A128A158427D8
:1004A8000A128A11831203135008BC3EA000510897
:1004B8000318013E023EA10000306002903003198B
:1004C8005F0203189F2A00306002813003195F021F
:1004D800031C9F2A0F30D0000030D1006008CB00E9
:1004E8005F08CA006430CC000030CD000A128A15BB
:1004F800A7260A128A11831203134A09E1004B093D
:10050800E200E10A0319E20A6108403ED2006208EB
:100518000318013E383ED3000A128A1584270A12AE
:100528008A11831203135008203EA00051080318B3
:10053800013E033EA10000306002813003195F02D2
:100548000318DE2A003060026E3003195F02031CB4
:10055800DE2A1330D0000030D1006008CB005F08DD
:10056800CA006430CC000030CD000A128A15A726D4
:100578000A128A11831203134A09E1004B09E200A7
:10058800E10A0319E20A6108643ED200620803180E
:10059800013E323ED3000A128A1584270A128A11B4
:1005A800831203135008B63EA00051080318013EF9
:1005B800033EA100003060026E3003195F02031889
:1005C8001D2B00306002623003195F02031C1D2BD3
:1005D8000C30D0000030D1006008CB005F08CA00A2
:1005E8006430CC000030CD000A128A15A7260A1202
:1005F8008A11831203134A09E1004B09E200E10A58
:100608000319E20A6108F83ED20062080318013EA5
:100618002A3ED3000A128A1584270A128A118312E5
:10062800031350084C3EA00051080318013E043E35
:10063800A10000306002623003195F0203185A2BD0
:10064800003060025A3003195F02031C5A2B6008FD
:10065800CB005F08CA006430CC000030CD000A121D
:100668008A15A7260A128A11831203134A09E10080
:100678004B09E200E10A0319E20A6108483EE30077
:1006880062080318013E263EE4000310E40CE30C64
:100698000310E40CE30C0310E40CE30C6308E23EE3
:1006A800A00064080318013E043EA1000030600267
:1006B8005A3003195F02031C682B023060020530B0
:1006C80003195F02031C0800A001A10108007F3084
:1006D80083120313EB00D430EA00AE30E900E90BD3
:1006E800732BEA0B732BEB0B732B7A2B0A128A15DD
:1006F8006F260A128A110A128A1514260A128A11FA
:100708000A128A15EF260A128A110A128A15592620
:100718000A128A110D3083120313E9006908EC00EC
:100728006C080A128A1523260A128A1180300A12C6
:100738008A1508260A128A114D3083120313EB001A
:100748001930EA009A30E900E90BA82BEA0BA82B2C
:10075800EB0BA82BAF2B84300A128A1508260A1235
:100768008A11831203133B08CE003A08CD000A12FF
:100778008A1181250A128A110A3083120313410251
:100788000318061C222CED01EE01AA01AB012B086F
:10079800803AFF0081307F02031DD42B90302A025B
:1007A8000318042C0A128A1127270A128A110A121E
:1007B8008A1587260A128A118312031323086E02E8
:1007C800031DE82B22086D020318F32B2308EE0003
:1007D8002208ED004808B400B501B41BB503013088
:1007E800AA070318AB0A0030AB072B08803AFF00B2
:1007F80081307F02031D022C90302A02031CD62B65
:10080800831203134808AA00AB01AA1BAB033508DF
:100818002B06031D112C34082A060319212C0A1251
:100828008A1172270A128A11013083120313AA0748
:100838000318AB0A0030AB070B2CC1010A303E028B
:10084800031C9A2CCC01CC0A12300A128A15C22732
:100858000A128A11831203134C084D04031D9A2CA3
:100868000130CB000030CC009030CD000030CE00FD
:100878007F30CF000030D000FF30D1000030D200F0
:100888000A128A15CA260A128A11831203133B0810
:10089800803AFF008F307F02031D542CA0303A02AB
:1008A8000318822C023083120313E9006908CC0074
:1008B80013300A128A15C2270A128A1183120313E7
:1008C8004D08A9004C08A80028083A07BA002908CA
:1008D8000318290A3B07BB0000300A128A15E125D4
:1008E8000A128A11831203133B08CE003A08CD007E
:1008F8000A128A1181250A128A11492C00308312A2
:100908000313CB00CC000030CD00CE007F30CF00E9
:100918000030D000FF30D1000030D2000A128A1512
:10092800CA260A128A1183120313BE010A303D0235
:10093800031C6D2DCC01CC0A12300A128A15C2276D
:100948000A128A11831203134C084D04031D6D2DDE
:10095800BA01BB01AA01AB012B08803AFF00803025
:100968007F02031DB92C04302A020318552D0030CC
:1009780083120313CB00CC00FA30CD000030CE0038
:10098800FF30CF000030D000FF30D1000030D2005F
:100998000A128A15CA260A128A1183120313250815
:1009A800803AFF007F307F02031DDC2CA730240231
:1009B800031CF12C023083120313E9006908CC00F0
:1009C80014300A128A15C2270A128A1183120313D5
:1009D8004D08A5004C08A400D12C00308312031345
:1009E800CB00CC00FA30CD000030CE007F30CF00F5
:1009F8000030D000FF30D1000030D2000A128A1532
:100A0800CA260A128A11831203133B08803AFF0090
:100A180083307F02031D122DE8303A020318402D5F
:100A2800023083120313E9006908CC0013300A125C
:100A38008A15C2270A128A11831203134D08A900C6
:100A48004C08A80028083A07BA0029080318290AF8
:100A58003B07BB0000300A128A15E1250A128A11E9
:100A6800831203133B08CE003A08CD000A128A11FC
:100A780081250A128A11072D83120313BA01BB01BB
:100A88000130AA070318AB0A0030AB072B08803ADD
:100A9800FF0080307F02031D532D04302A02031CFF
:100AA800BB2C003083120313CB00CC000030CD00E8
:100AB800CE007F30CF000030D000FF30D1000030B2
:100AC800D2000A128A15CA260A128A11831203133F
:100AD800BD010A303C02031CC02BCC01CC0A1230E9
:100AE8000A128A15C2270A128A11831203134C08A4
:100AF8004D04031DC02BBC01C02B831203134E08E9
:100B0800D8004D08D700CF01D001D101D201D301BF
:100B1800D401D501D60127305802103003195702E5
:100B2800031CB32D5708F03ED70058080318013EA0
:100B3800D83ED8000130D5070318D60A0030D607AA
:100B48008F2D5708183ED70058080318013EFC3E61
:100B5800D8000130D3070318D40A0030D407033073
:100B68005802E83003195702031CC92DA52D570850
:100B78009C3ED70058080318013EFF3ED8000130BC
:100B8800D1070318D20A0030D20700305802643067
:100B980003195702031CDF2DBB2D5708F63ED7005B
:100BA80058080318013EFF3ED8000130CF0703184C
:100BB800D00A0030D007003058020A300319570213
:100BC8000318D12D550856040319F12D5508303E48
:100BD8000A128A1532260A128A118312031353083D
:100BE80054040319FE2D5308303E0A128A15322682
:100BF8000A128A11831203135108303E0A128A1509
:100C080032260A128A11831203134F08303E0A1241
:100C18008A1532260A128A11831203135708303EA6
:100C28000A128A153226080083120313DA01D31F29
:100C38002A2ED009D109D209D309D00A0319D10A19
:100C48000319D20A0319D30ADA01DA0AD71F3B2E8D
:100C5800D409D509D609D709D40A0319D50A03191D
:100C6800D60A0319D70A0130D8005808DA06003026
:100C7800DE000030DD000030DC000030DB0053080F
:100C88005204510450040319902ED901D90AD31BD8
:100C98005B2E0130D8000310D00DD10DD20DD30D2D
:100CA800D80B4F2E0130D8005808D9074B2E0130E9
:100CB800D8000310DB0DDC0DDD0DDE0DD80B5D2E2D
:100CC80053085702031D722E52085602031D722E36
:100CD80051085502031D722E50085402031C832E1E
:100CE8005008D4025108031C510FD5025208031CA6
:100CF800520FD6025308031C530FD7025B1401305E
:100D08000310D30CD20CD10CD00CFF3E031D842E43
:100D18000130D902031D5B2E5A0803199E2EDB09E8
:100D2800DC09DD09DE09DB0A0319DC0A0319DD0A1F
:100D38000319DE0A5E08D3005D08D2005C08D10002
:100D48005B08D00008000B1D1A2F0B1164308100BE
:100D58000130B8070318B90A0030B90707150000B1
:100D6800831203130711E830F0000330F10039084B
:100D7800F3003808F2000A128A1518270A128A1195
:100D880070087104031DCE2E1030831203138606DB
:100D9800B801B901831203130618D62E0130F900E1
:100DA8007908C1078618DC2E0130F9007908C007D8
:100DB8000619E22E0130F9007908BF07F201F20A9C
:100DC80012300A128A154A270A128A11720373040A
:100DD800031DF42E0130F900790883120313BE07AE
:100DE800F201F20A12300A128A154A270A128A11E7
:100DF800043072067304031D072F0130F9007908C7
:100E080083120313BD07F201F20A12300A128A157F
:100E18004A270A128A11053072067304031D1A2F15
:100E28000130F900790883120313BC077D08831287
:100E38000313FF007C088A007B0884007A0E830075
:100E4800FE0E7E0E0900831203134808031D2E2F81
:100E5800C601C60AFF30CA004A08C8074E2F1B3011
:100E6800402F1730402F3530402F2730402F2B3060
:100E7800402F2E30402F3C3087000130C402682FAD
:100E88001E3087000730CA004A08C400682F39306E
:100E98008700682F4408003A0319442F013A0319C0
:100EA8003F2F033A03193D2F013A03193B2F073A05
:100EB8000319392F013A0319372F033A0319352F2C
:100EC800013A0319332F4B2F1430CB007930CA0065
:100ED800CA0B6C2FCB0B6C2F712F080083120313D6
:100EE800480A0319C6010130CA004A08C807962FE4
:100EF8002E30892F2B30892F2730892F3530892F95
:100F08001730892F1B30892F1E3087000130CA0007
:100F18004A08C407B02F3C308700C401B02F3930CD
:100F28008700B02F4408003A03197C2F013A0319AF
:100F38007E2F033A0319802F013A0319822F073AAB
:100F48000319842F013A0319862F033A0319882FAE
:100F5800013A03198F2F932F1430CB007930CA0030
:100F6800CA0BB42FCB0BB42FB92F0800831203136D
:100F78009E01831603139E01831203131F151F1965
:100F8800C32F1E08CA00CB010310CA0DCB0D0310D6
:100F9800CA0DCB0D4A08A2004B08A300F12F8312FB
:100FA8002208013EA20023080318013E003EA300C8
:100FB800080083122208023EA20023080318013EFB
:100FC800003EA300080083122208033EA200230863
:100FD8000318013E003EA3000800831603131E08F1
:100FE800403A0319D32FC03A0319DD2F403A0319A9
:060FF800E72FFE2F0800A8
:101BAE00E834033464008001840A04060319003407
:101BBE000406DA2D83120313CD00CD174D080A1239
:101BCE008A1545260800831203138C1EEA2D1A0867
:101BDE00F0007008F10071080800F000831603137E
:101BEE00981CF52D700883120313990008008312B8
:101BFE0003138C1EFE2D1A08CA004A08CB004B0890
:101C0E00080083120313CA0083160313981C0B2EAD
:101C1E00831203134A089900080024308316031315
:101C2E009800983083120313980014308316031310
:101C3E0099000B178B17080083120313CC00CB01EE
:101C4E008C114C0893008C1D2A2E1308CA004A08CA
:101C5E00CB008C11080083120313CC0009118910DC
:101C6E0009144C088800091509110730CB007D3086
:101C7E00CA00CA0B402ECB0B402E08008312031352
:101C8E00CC000911891009104C088800091509119A
:101C9E000D30CB00FB30CA00CA0B532ECB0B532E8C
:101CAE00582E0800831203138501FF308316031389
:101CBE0085008930831203139F00023083160313AD
:101CCE009F00533083120313CA00CA0B6C2E0800F8
:101CDE0083160313860140309400203083120313C1
:101CEE009400D0308316031387000330831203133E
:101CFE00870004308316031381008B168B170800A0
:101D0E000A128A11BA270A128A1580300A128A1507
:101D1E00E1250A128A15831203132308CE00220826
:101D2E00CD000A128A1181250A128A158312031315
:101D3E002308E0002208DF000A128A112D20080075
:101D4E0083120313CE01CF014A1CB32E4C08CE07CB
:101D5E000318CF0A4D08CF0701300310CC0DCD0D5F
:101D6E00FF3E031DB42E01300310CB0CCA0CFF3EF8
:101D7E00031DBB2E4A084B04031DAB2E4F08CB0090
:101D8E004E08CA00080089300A128A1508260A125F
:101D9E008A15831203134B080A128A1508260A1293
:101DAE008A15831203134D080A128A1508260A1281
:101DBE008A15831203134F080A128A1508260A126F
:101DCE008A158312031351080A128A150826080071
:101DDE000230831603139F008312031388018901B7
:101DEE00831603138801890101300A128A154526CC
:101DFE000A128A1538300A128A1545260A128A15D1
:101E0E000C300A128A1545260A128A1506300A1255
:101E1E008A1545260A128A1502300A128A15452697
:101E2E000800700871040319452FF501F50AF11B1E
:101E3E002C2F01300310F00DF10DFF3E031D212F4D
:101E4E000130F4007408F5071E2F71087302031D8C
:101E5E00322F70087202031C3A2F7008F2027108BA
:101E6E00031CF303F30201300310F10CF00CFF3EE0
:101E7E00031D3B2F0130F502031D2C2F7308F100BB
:101E8E007208F0000800F6008E300A128A15F4254A
:101E9E000A128A1576080A128A15F4250A128A156C
:101EAE0002307206031D662F0A128A15EA250A12DF
:101EBE008A15F400740883120313C900692F831264
:101ECE000313C9010A128A15EA25F4007408831255
:101EDE000313C5004908F400F5017408F500F40178
:101EEE0045087407F7000030031801307507F80035
:101EFE007808F3007708F200080083120313D50167
:101F0E00D601500851040319BD2FD701D70AD11B92
:101F1E009C2F01300310D00DD10DFF3E031D912FCC
:101F2E000130D4005408D7078E2F01300310D50D81
:101F3E00D60DFF3E031D9D2F51085302031DA92FE1
:101F4E0050085202031CB22F5008D2025108031C33
:101F5E00D303D302551401300310D10CD00CFF3E25
:101F6E00031DB32F0130D702031D9C2F5608D1003D
:101F7E005508D000080083120313D2008E300A12C7
:101F8E008A1508260A128A158312031352080A129A
:101F9E008A1508260A128A150230831203134C067C
:101FAE00031DE42F0A128A15FE250A128A158312C2
:101FBE000313CE004E08C900E52FC9010A128A1577
:101FCE00FE2583120313CE004E08C5004908CE002D
:101FDE00CF014E08CF00CE0145084E07D00000308D
:101FEE00031801304F07D1005108CD005008CC0026
:021FFE000800D9
:02400E003A3F37
:00000001FF
