:060000000A128A11122809
:10000800FE00030EF7000408F8000A08F90083123E
:1000180003137F08FA000A128A11742A0A128A1135
:1000280015280A128A11B6230A128A11CA000A125E
:100038008A11B7230A128A11CB0083132030840057
:1000480038300A128A11AE23FB01FC01FD0183013D
:100058000A128A112F280A128A1108230A128A11F1
:100068000A128A1181230A128A110A128A11DF22BE
:100078000A128A110A128A1120230A128A110D30D3
:1000880083120313C7004708C90049080A128A11D6
:1000980072230A128A1180300A128A1190230A12D6
:1000A8008A1184300A128A1190230A128A11883020
:1000B8000A128A1190230A128A1104300A128A112C
:1000C80090230A128A118E300A128A1190230A127A
:1000D8008A1113300A128A1190230A128A110A12FD
:1000E8008A119C230A128A11831203133408C70049
:1000F800C8014708B6004808B7000A128A119C23AD
:100108000A128A11831203133408C700C80147086A
:10011800A8004808A9003708C8003608C700031017
:10012800C70DC80D0310C70DC80D28084707A6003E
:1001380029080318290A4807A7002708BC00260829
:10014800BB000A128A1105210A128A117D1CB128E6
:1001580001308312031386067D100A3083120313BD
:1001680032020318061CAA28B001B10190303006EB
:10017800031DEA283103031DEA280A128A119C216B
:100188000A128A110A128A1136230A128A11831254
:1001980003134B082302031DD3284A08220203181D
:1001A800DE282308CB002208CA003508AA00AB01C4
:1001B800AA1BAB030130B0070318B10A0030B1071E
:1001C80090303006031931030319C1283508B000EF
:1001D800B101B01BB1032B08B1002A08B0003008E8
:1001E80031040319AA280A128A11E7210A128A116E
:1001F800013083120313B0070318B10A0030B107A6
:10020800EF28831203133C08C6003B08C500BD0154
:10021800BE01BF01C001C101C201C301C401273031
:100228004602103003194502031C37294508F03EE1
:10023800C50046080318013ED83EC6000130C30772
:100248000318C40A0030C40713294508183EC5001E
:1002580046080318013EFC3EC6000130C1070318DA
:10026800C20A0030C20703304602E83003194502CB
:10027800031C4D29292945089C3EC500460803183A
:10028800013EFF3EC6000130BF070318C00A003018
:10029800C00700304602643003194502031C632975
:1002A8003F294508F63EC50046080318013EFF3EB3
:1002B800C6000130BD070318BE0A0030BE07003073
:1002C80046020A3003194502031855294308440415
:1002D800031975294308303E0A128A115F230A124E
:1002E8008A11831203134108420403198229410821
:1002F800303E0A128A115F230A128A1183120313ED
:100308003F08303E0A128A115F230A128A118312AB
:1003180003133D08303E0A128A115F230A128A111C
:10032800831203134508303E0A128A115F2308001E
:10033800831203133508031DA329FC01FC0AFF30AF
:10034800B8003808B507C3291B30B5291730B529B7
:100358003530B5292730B5292B30B5292E30B529A8
:100368003C3087000130FB02DD291E308700073052
:10037800B8003808FB00DD2939308700DD297B0803
:10038800003A0319B929013A0319B429033A0319A0
:10039800B229013A0319B029073A0319AE29013ADB
:1003A8000319AC29033A0319AA29013A0319A82900
:1003B800C0291430B9007930B800B80BE129B90B5D
:1003C800E129E629080083120313350A0319FC0101
:1003D8000130B8003808B5070B2A2E30FE292B301B
:1003E800FE292730FE293530FE291730FE291B301B
:1003F800FE291E3087000130B8003808FB07252A7F
:100408003C308700FB01252A39308700252A7B08E4
:10041800003A0319F129013A0319F329033A031998
:10042800F529013A0319F729073A0319F929013A75
:100438000319FB29033A0319FD29013A0319042A70
:10044800082A1430B9007930B800B80B292AB90B3A
:10045800292A2E2A0800831203139E0183160313E8
:100468009E01831203131F151F19382A1E08B8008E
:10047800B9010310B80DB90D0310B80DB90D38083E
:10048800A2003908A300662A83122208013EA200AE
:1004980023080318013E003EA30008008312220827
:1004A800023EA20023080318013E003EA3000800F4
:1004B80083122208033EA20023080318013E003ECF
:1004C800A3000800831603131E08403A0319482A9C
:1004D800C03A0319522A403A03195C2A732A0800C1
:1004E8000B1DA22A0B11643081000130AE070318DE
:1004F800AF0A0030AF070715000083120313071176
:10050800E830F0000330F1002F08F3002E08F20065
:100518000A128A11AD220A128A1170087104031D89
:100528009A2A7D1483120313AE01AF0183120313B9
:100538000618A22A0130F6007608B2077A08FF00EA
:1005480079088A0078088400770E8300FE0E7E0EF4
:100558000900700871040319DA2AF501F50AF11B7C
:10056800C12A01300310F00DF10DFF3E031DB62A1C
:100578000130F4007408F507B32A71087302031DEB
:10058800C72A70087202031CCF2A7008F202710889
:10059800031CF303F30201300310F10CF00CFF3ECF
:1005A800031DD02A0130F502031DC12A7308F1008A
:1005B8007208F00008000230831603139F008312AC
:1005C8000313880189018316031388018901013007
:1005D8000A128A114B230A128A1138300A128A1118
:1005E8004B230A128A110C300A128A114B230A1261
:1005F8008A1106300A128A114B230A128A11023014
:100608000A128A114B23080083160313860140300F
:1006180094002030831203139400D0308316031300
:1006280087000330831203138700043083160313F3
:1006380081008B168B170800831203138501FF3086
:100648008316031385008930831203139F00023039
:10065800831603139F00533083120313B800B80B9B
:10066800332B08000A128A112F220A128A118030AD
:100678000A128A11A5230A128A1183120313230866
:10068800BC002208BB000A128A1105210800831247
:100698000313BA000911891009103A0888000915CE
:1006A80009110D30B900FB30B800B80B592BB90B44
:1006B800592B5E2B080083120313BA000911891005
:1006C80009143A088800091509110730B9007D3066
:1006D800B800B80B6D2BB90B6D2B080083120313F0
:1006E800BA00B9018C113A0893008C1D792B1308B4
:1006F800B8003808B9008C11080024308316031399
:10070800980098308312031398001430831603134B
:1007180099000B178B17080083120313B800831670
:100728000313981C932B83120313380899000800AD
:10073800831203138C1E9C2B1A08B8003808B900C2
:10074800080083120313BB00BB173B080A128A1167
:100758004B23080064008001840A0406031900344E
:080768000406AF2BE834033452
:02400E003A3F37
:00000001FF
