:060000000A128A11122809
:10000800FE00030EF6000408F7000A08F800831241
:1000180003137F08F9000A128A1147290A128A1164
:100028001528FD01FA01FB01FC0183120313B80135
:10003800B901BA01BB01BC01BD01BE01BF01C001CC
:10004800C101C20183010A128A11C1288312031354
:100058002408AE002308AD00A501A601A701A80148
:10006800A901AA01AB01AC0127302E0210300319F7
:100078002D02031C5C282D08F03EAD002E08031845
:10008800013ED83EAE000130AB070318AC0A003081
:10009800AC0738282D08183EAD002E080318013E7D
:1000A800FC3EAE000130A9070318AA0A0030AA07CF
:1000B80003302E02E83003192D02031C72284E2843
:1000C8002D089C3EAD002E080318013EFF3EAE00F1
:1000D8000130A7070318A80A0030A80700302E022D
:1000E800643003192D02031C882864282D08F63E65
:1000F800AD002E080318013EFF3EAE000130A507F3
:100108000318A60A0030A60700302E020A30031989
:100118002D0203187A282B082C0403199A282B0877
:10012800303E0A128A1101220A128A11831203131D
:1001380029082A040319A7282908303E0A128A1117
:1001480001220A128A11831203132708303E0A1269
:100158008A1101220A128A11831203132508303EDC
:100168000A128A1101220A128A11831203132D0816
:10017800303E0A128A110122080083120313B101CA
:10018800B201B301B401B501B6010A128A11D52131
:100198000A128A110A128A1123220A128A110A12D1
:1001A8008A11AC210A128A110D3083120313AF0091
:1001B8002F08B70037080A128A1114220A128A1166
:1001C80080300A128A1132220A128A1184300A12E5
:1001D8008A1132220A128A1188300A128A113222AE
:1001E8000A128A1104300A128A1132220A128A115A
:1001F8008E300A128A1132220A128A1113300A1218
:100208008A1132220A128A110A128A113E220A120D
:100218008A11831203134208AF00B0012F08B100FE
:100228003008B2000A128A113E220A128A11831279
:1002380003134208AF00B0012F08B3003008B40020
:100248003208B0003108AF000310AF0DB00D031035
:10025800AF0DB00D33082F07B50034080318340A62
:100268003007B6003608A4003508A3000A128A1120
:100278002A200A128A117D1C3F2901308312031398
:1002880086067D103F290B1D6D290B1164308100F6
:100298000130C0070318C10A0030C1070715000064
:1002A800831203130711E830F0000330F10041080E
:1002B800F3004008F2000A128A117A210A128A1100
:1002C80070087104031D6D297D1483120313C00186
:1002D800C101790883120313FF0078088A007708A0
:1002E8008400760E8300FE0E7E0E090070087104ED
:1002F8000319A729F501F50AF11B8E29013003100E
:10030800F00DF10DFF3E031D83290130F400740840
:10031800F507802971087302031D94297008720279
:10032800031C9C297008F2027108031CF303F302F2
:1003380001300310F10CF00CFF3E031D9D29013024
:10034800F502031D8E297308F1007208F0000800F9
:100358000230831603139F00831203138801890157
:10036800831603138801890101300A128A11ED21CD
:100378000A128A1138300A128A11ED210A128A11DA
:100388000C300A128A11ED210A128A1106300A125B
:100398008A11ED210A128A1102300A128A11ED21FE
:1003A800080083160313860140309400203083121E
:1003B80003139400D030831603138700033083128D
:1003C8000313870004308316031381008B168B17E1
:1003D800080083120313A2000911891009102208CA
:1003E8008800091509110D30A100FB30A000A00BF1
:1003F800FB29A10BFB29002A080083120313A20082
:1004080009118910091422088800091509110730F3
:10041800A1007D30A000A00B0F2AA10B0F2A080015
:1004280083120313A200A1018C11220893008C1DD2
:100438001B2A1308A0002008A1008C1108002430F2
:10044800831603139800983083120313980014300E
:100458008316031399000B178B17080083120313D5
:10046800A00083160313981C352A8312031320084F
:1004780099000800831203138C1E3E2A1A08A00054
:060488002008A10008009D
:02400E003A3F37
:00000001FF
