:060000000A128A11122809
:10000800FE00030EF7000408F8000A08F90083123E
:1000180003137F08FA000A128A15BA2F0A128A11E6
:1000280015280A128A15D3250A128A11EC000A1219
:100038008A15D4250A128A11ED0083132030840012
:1000480049300A128A15D525FB01FC01FD018301FF
:100058000A128A116D2B0230831203135F020530D6
:1000680003195E020318982802305F020130031951
:100078005E02031C98280030D2000030D100003006
:10008800D0000430CF00F430E000C930E100003087
:10009800E2000030E3005F08CA005E08C90064306F
:1000A800CB000030CC000A128A1585260A128A1164
:1000B800831203134908E4004A08E500E601E70152
:1000C800E409E509E609E709E40A0319E50A031959
:1000D800E60A0319E70A6408E00765080318650FCC
:1000E80076287728E10766080318660F7C287D289C
:1000F800E20767080318670AE3076308D60062087F
:10010800D5006108D4006008D3000A128A111526A8
:100118000A128A11831203134F08643EA000500884
:100128000318013E003EA10002305F0201300319AE
:100138005E020318FF2801305F02893003195E024E
:10014800031CFF280030D2000030D1000030D0005E
:100158007830CF006430E000C830E1000030E200C1
:100168000030E3005F08CA005E08C9006430CB00B5
:100178000030CC000A128A1585260A128A118312C9
:1001880003134908E4004A08E500E601E701E40929
:10019800E509E609E709E40A0319E50A0319E60A85
:1001A8000319E70A6408E00765080318650FDD28E6
:1001B800DE28E10766080318660FE328E428E2074B
:1001C80067080318670AE3076308D6006208D500C2
:1001D8006108D4006008D3000A128A1115260A1291
:1001E8008A11831203134F08C83EA0005008031851
:1001F800013E003EA10001305F02893003195E0212
:100208000318662901305F022A3003195E02031CB5
:1002180066290030D2000030D1000030D0005F30B5
:10022800CF008430E0009930E1000030E200003077
:10023800E3005F08CA005E08C9006430CB000030E4
:10024800CC000A128A1585260A128A118312031312
:100258004908E4004A08E500E601E701E409E50980
:10026800E609E709E40A0319E50A0319E60A031986
:10027800E70A6408E00765080318650F442945295B
:10028800E10766080318660F4A294B29E207670841
:100298000318670AE3076308D6006208D5006108F7
:1002A800D4006008D3000A128A1115260A128A118E
:1002B800831203134F082C3EA00050080318013E78
:1002C800013EA10001305F022A3003195E020318C3
:1002D800A52900305F02EC3003195E02031CA52932
:1002E8003E30CF000030D0005F08CA005E08C90069
:1002F8006430CB000030CC000A128A1585260A1219
:100308008A11831203134909E0004A09E100E00A4F
:100318000319E10A6008683ED10061080318013E2C
:10032800743ED2000A128A15F9260A128A1183121B
:1003380003134F08903EA00050080318013E013EE9
:10034800A10000305F02EC3003195E020318E429B3
:1003580000305F02C23003195E02031CE4292A3010
:10036800CF000030D0005F08CA005E08C9006430C2
:10037800CB000030CC000A128A1585260A128A1191
:10038800831203134909E0004A09E100E00A03194E
:10039800E10A6008303ED10061080318013E5C3E66
:1003A800D2000A128A15F9260A128A118312031337
:1003B8004F08F43EA00050080318013E013EA1007A
:1003C80000305F02C23003195E020318232A00308E
:1003D8005F02A83003195E02031C232A1A30CF00DB
:1003E8000030D0005F08CA005E08C9006430CB0046
:1003F8000030CC000A128A1585260A128A11831247
:1004080003134909E0004A09E100E00A0319E10A77
:100418006008C83ED10061080318013E4B3ED20077
:100428000A128A15F9260A128A11831203134F0831
:10043800583EA00050080318013E023EA1000030BB
:100448005F02A83003195E020318622A00305F02B7
:10045800903003195E02031C622A1830CF00003066
:10046800D0005F08CA005E08C9006430CB000030C5
:10047800CC000A128A1585260A128A1183120313E0
:100488004909E0004A09E100E00A0319E10A6008A5
:10049800A03ED10061080318013E413ED2000A1275
:1004A8008A15F9260A128A11831203134F08BC3ED3
:1004B800A00050080318013E023EA10000305F0270
:1004C800903003195E020318A12A00305F028130C0
:1004D80003195E02031CA12A0F30CF000030D000A0
:1004E8005F08CA005E08C9006430CB000030CC0049
:1004F8000A128A1585260A128A11831203134909DA
:10050800E0004A09E100E00A0319E10A6008403EF8
:10051800D10061080318013E383ED2000A128A153C
:10052800F9260A128A11831203134F08203EA000ED
:1005380050080318013E033EA10000305F028130DD
:1005480003195E020318E02A00305F026E300319B7
:100558005E02031CE02A1330CF000030D0005F0891
:10056800CA005E08C9006430CB000030CC000A1213
:100578008A1585260A128A11831203134909E00095
:100588004A09E100E00A0319E10A6008643ED10063
:1005980061080318013E323ED2000A128A15F92674
:1005A8000A128A11831203134F08B63EA00050089E
:1005B8000318013E033EA10000305F026E300319AC
:1005C8005E0203181F2B00305F02623003195E02BF
:1005D800031C1F2B0C30CF000030D0005F08CA006E
:1005E8005E08C9006430CB000030CC000A128A15BE
:1005F80085260A128A11831203134909E0004A0961
:10060800E100E00A0319E10A6008F83ED100610838
:100618000318013E2A3ED2000A128A15F9260A1248
:100628008A11831203134F084C3EA0005008031888
:10063800013E043EA10000305F02623003195E02F1
:1006480003185C2B00305F025A3003195E02031C4A
:100658005C2B5F08CA005E08C9006430CB0000301C
:10066800CC000A128A1585260A128A1183120313EE
:100678004909E0004A09E100E00A0319E10A6008B3
:10068800483EE20061080318013E263EE3000310DD
:10069800E30CE20C0310E30CE20C0310E30CE20C95
:1006A8006208E23EA00063080318013E043EA10070
:1006B80000305F025A3003195E02031C6A2B0230B5
:1006C8005F02053003195E02031C0800A001A101A6
:1006D80008007F3083120313EA00D430E900AE30FB
:1006E800E800E80B752BE90B752BEA0B752B7C2BB7
:1006F8000A128A154D260A128A110A128A15F2253B
:100708000A128A110A128A15D0260A128A110A12A6
:100718008A1537260A128A110D3083120313E8004E
:100728006808EB006B080A128A1501260A128A115A
:100738001A3083120313EA005E30E9008630E800BD
:10074800E80BA42BE90BA42BEA0BA42B00008030A8
:100758000A128A15E6250A128A111A30831203131F
:10076800EA005E30E9008630E800E80BB92BE90BB7
:10077800B92BEA0BB92B000084300A128A15E6253A
:100788000A128A111A3083120313EA005E30E90054
:100798008630E800E80BCE2BE90BCE2BEA0BCE2BEC
:1007A8000000831203133708CD003608CC000A1264
:1007B8008A117E250A128A110A30831203133C0219
:1007C800031C4D2C0618EE2B4D2C0A128A117C277F
:1007D8000A128A1183120313C71BE92BEC01ED01DE
:1007E800AE01AF012F08803AFF0081307F02031D60
:1007F800FF2B90302E0203182F2C0A128A11312752
:100808000A128A110A128A1565260A128A11831297
:10081800031327086D02031D132C26086C02031806
:100828001E2C2708ED002608EC004708B000B1018F
:10083800B01BB1030130AE070318AF0A0030AF0791
:100848002F08803AFF0081307F02031D2D2C903045
:100858002E02031C012C831203134708AE00AF01BC
:10086800AE1BAF0331082F06031D3C2C30082E06A3
:1008780003194C2C0A128A117C270A128A1101309A
:1008880083120313AE070318AF0A0030AF07362CE4
:10089800BC01CB01CB0A12300A128A1537270A127B
:1008A8008A11831203134B034C04031DB02CB601A9
:1008B800B701C830CA000030CB00C830CC000030C7
:1008C800CD000A128A11A4260A128A118312031370
:1008D8003708803AFF008B307F02031D752CB83033
:1008E80036020318A32C023083120313E8006808A9
:1008F800CB0013300A128A1537270A128A1183127D
:1009080003134C08AD004B08AC002C083607B600A2
:100918002D0803182D0A3707B70000300A128A1568
:10092800DD250A128A11831203133708CD00360811
:10093800CC000A128A117E250A128A116A2C00300C
:1009480083120313CA00CB000030CC00CD000A127A
:100958008A11A4260A128A1183120313CB01CB0A27
:1009680012300A128A1537270A128A1104308312A4
:1009780003134B064C04031D732DB601B701AE01DA
:10098800AF012F08803AFF0080307F02031DCE2C74
:1009980004302E020318662DFA3083120313E80080
:1009A8006808CA00FF30E9006908CB00FF30EA0098
:1009B8006A08CC0000300A128A15A8260A128A1181
:1009C800831203132908803AFF007F307F02031D3A
:1009D800EF2CA7302802031C042D023083120313C6
:1009E800E8006808CB0014300A128A1537270A1263
:1009F8008A11831203134C08A9004B08A800E42CA1
:100A0800FA3083120313E8006808CA007F30E9004F
:100A18006908CB00FF30EA006A08CC0000300A12EF
:100A28008A15A8260A128A11831203133708803AF6
:100A3800FF0083307F02031D232DE83036020318A0
:100A4800512D023083120313E8006808CB001330DD
:100A58000A128A1537270A128A11831203134C08BF
:100A6800AD004B08AC002C083607B6002D0803185B
:100A78002D0A3707B70000300A128A15DD250A1239
:100A88008A11831203133708CD003608CC000A12E6
:100A98008A117E250A128A11182D83120313B601B2
:100AA800B7010130AE070318AF0A0030AF072F08AF
:100AB800803AFF0080307F02031D642D04302E022F
:100AC800031CD02C003083120313CA00CB00003063
:100AD800CC00CD000A128A11A4260A128A118312A8
:100AE8000313CB01CB0A12300A128A1537270A12D0
:100AF8008A11E02B831203134D08D7004C08D60047
:100B0800CE01CF01D001D101D201D301D401D50149
:100B180027305702103003195602031CB02D56080F
:100B2800F03ED60057080318013ED83ED7000130E2
:100B3800D4070318D50A0030D5078C2D5608183E5F
:100B4800D60057080318013EFC3ED7000130D207F3
:100B58000318D30A0030D30703305702E8300319CB
:100B68005602031CC62DA22D56089C3ED6005708D7
:100B78000318013EFF3ED7000130D0070318D10A01
:100B88000030D10700305702643003195602031CA5
:100B9800DC2DB82D5608F63ED60057080318013E3E
:100BA800FF3ED7000130CE070318CF0A0030CF0729
:100BB800003057020A30031956020318CE2D540884
:100BC80055040319EE2D5408303E0A128A151026D2
:100BD8000A128A1183120313520853040319FB2DB6
:100BE8005208303E0A128A1510260A128A118312F8
:100BF80003135008303E0A128A1510260A128A1169
:100C0800831203134E08303E0A128A1510260A1260
:100C18008A11831203135608303E0A128A151026C9
:100C2800080083120313D901D21F272ECF09D00938
:100C3800D109D209CF0A0319D00A0319D10A031915
:100C4800D20AD901D90AD61F382ED309D409D50911
:100C5800D609D30A0319D40A0319D50A0319D60ADF
:100C68000130D7005708D9060030DD000030DC001D
:100C78000030DB000030DA005208510450044F0401
:100C880003198D2ED801D80AD21B582E0130D7004F
:100C98000310CF0DD00DD10DD20DD70B4C2E013036
:100CA800D7005708D807482E0130D7000310DA0DAF
:100CB800DB0DDC0DDD0DD70B5A2E52085602031D35
:100CC8006F2E51085502031D6F2E50085402031D44
:100CD8006F2E4F085302031C802E4F08D302500872
:100CE800031C500FD4025108031C510FD50252089F
:100CF800031C520FD6025A1401300310D20CD10C27
:100D0800D00CCF0CFF3E031D812E0130D802031DED
:100D1800582E590803199B2EDA09DB09DC09DD096D
:100D2800DA0A0319DB0A0319DC0A0319DD0A5D086C
:100D3800D2005C08D1005B08D0005A08CF00080038
:100D480083120313BD01B8014B08803AFF008130BC
:100D58007F02031DB12E00304A02031CD42E8312D9
:100D680003134B08D0004A08CF00BD0101305002E0
:100D7800003003194F02031CD42E4F08003ECF0049
:100D880050080318013EFF3ED0000130CE004E0847
:100D9800BD0701305002003003194F020318C12E5D
:100DA800831203134A08CE004E08BE004D08803A4D
:100DB800FF0081307F02031DE32E00304C02031C2C
:100DC800062F831203134D08D2004C08D100B80136
:100DD80001305202003003195102031C062F51083A
:100DE800003ED10052080318013EFF3ED2000130F8
:100DF800CE004E08B80701305202003003195102E4
:100E08000318F32E831203134C08CE004E08B900C2
:100E180091300A128A15E6250A128A1183120313E1
:100E28003D080A128A15E6250A128A11831203134D
:100E38003E080A128A15E6250A128A11831203133C
:100E480038080A128A15E6250A128A118312031332
:100E580039080A128A15E625080083120313470881
:100E6800031D382FC201C20AFF30C9004908C7074D
:100E7800582F1B304A2F17304A2F35304A2F27302A
:100E88004A2F2B304A2F2E304A2F3C308700013012
:100E9800FB02722F1E3087000730C9004908FB008B
:100EA800722F39308700722F7B08003A03194E2FB2
:100EB800013A0319492F033A0319472F013A031935
:100EC800452F073A0319432F013A0319412F033AD3
:100ED80003193F2F013A03193D2F552F1430CA002B
:100EE8007930C900C90B762FCA0B762F7B2F0800E3
:100EF80083120313470A0319C2010130C9004908C4
:100F0800C707A02F2E30932F2B30932F2730932FE6
:100F18003530932F1730932F1B30932F1E308700B7
:100F28000130C9004908FB07BA2F3C308700FB0194
:100F3800BA2F39308700BA2F7B08003A0319862F59
:100F4800013A0319882F033A03198A2F013A031922
:100F58008C2F073A03198E2F013A0319902F033A61
:100F68000319922F013A0319992F9D2F1430CA00A3
:100F78007930C900C90BBE2FCA0BBE2FC32F08007A
:100F8800700871040319F12FF501F50AF11BD82F28
:100F980001300310F00DF10DFF3E031DCD2F013080
:100FA800F4007408F507CA2F71087302031DDE2FB9
:100FB80070087202031CE62F7008F2027108031C05
:100FC800F303F30201300310F10CF00CFF3E031D94
:100FD800E72F0130F502031DD82F7308F1007208BE
:100FE800F0000800831203138C1EF62F1A08C9009C
:080FF8004908CA004A0808007C
:101BA600E834033464008001840A0406031900340F
:101BB6000406D62D83120313CC00CC174C080A1248
:101BC6008A152326080083120313C90083160313FC
:101BD600981CE92D83120313490899000800243044
:101BE6008316031398009830831203139800143059
:101BF6008316031399000B178B1708008312031320
:101C0600CB00CA018C114B0893008C1D082E1308BB
:101C1600C9004908CA008C11080083120313CB00BF
:101C26000911891009144B08880009150911073094
:101C3600CA007D30C900C90B1E2ECA0B1E2E080015
:101C460083120313CB000911891009104B08880071
:101C5600091509110D30CA00FB30C900C90B312E18
:101C6600CA0B312E362E0800831203138501FF306E
:101C76008316031385008930831203139F000230F5
:101C8600831603139F00533083120313C900C90B35
:101C96004A2E080083160313860140309400203034
:101CA600831203139400D030831603138700033086
:101CB60083120313870004308316031381008B16E7
:101CC6008B1708000A128A1575270A128A158030A2
:101CD6000A128A15DD250A128A15831203132708AC
:101CE600CD002608CC000A128A117E250A128A1512
:101CF600831203132708DF002608DE000A128A1162
:101D06002F20080083120313CD01CE01491C912E0A
:101D16004B08CD070318CE0A4C08CE070130031036
:101D2600CB0DCC0DFF3E031D922E01300310CA0CC5
:101D3600C90CFF3E031D992E49084A04031D892E2E
:101D46004E08CA004D08C900080083120313CD00CF
:101D560089300A128A15E6250A128A158312031398
:101D66004D080A128A15E6250A128A1583120313EC
:101D76004A080A128A15E6250A128A1583120313DF
:101D86004B080A128A15E6250A128A1583120313CE
:101D96004C080A128A15E62508000230831603133A
:101DA6009F00831203138801890183160313880198
:101DB600890101300A128A1523260A128A1538303B
:101DC6000A128A1523260A128A150C300A128A1557
:101DD60023260A128A1506300A128A1523260A12A3
:101DE6008A1502300A128A15232608008312031365
:101DF600D401D5014F0850040319322FD601D60A53
:101E0600D01B112F01300310CF0DD00DFF3E031D47
:101E1600062F0130D3005308D607032F01300310D5
:101E2600D40DD50DFF3E031D122F50085202031D7F
:101E36001E2F4F085102031C272F4F08D1025008AE
:101E4600031CD203D202541401300310D00CCF0C61
:101E5600FF3E031D282F0130D602031D112F550802
:101E6600D0005408CF00080083120313D1008E302F
:101E76000A128A15E6250A128A15831203135108D7
:101E86000A128A15E6250A128A15023083120313EE
:101E96004B06031D592F0A128A11F6270A128A15B4
:101EA60083120313CD004D08C8005A2FC8010A1229
:101EB6008A11F62783120313CD004D08C100480886
:101EC600CD00CE014D08CE00CD0141084D07CF0013
:101ED6000030031801304E07D0005008CC004F08E0
:101EE600CB000800831203139E01831603139E0181
:101EF600831203131F151F197E2F1E08C900CA015E
:101F06000310C90DCA0D0310C90DCA0D4908A60054
:101F16004A08A700AC2F83122608013EA600270810
:101F26000318013E003EA700080083122608023E61
:101F3600A60027080318013E003EA70008008312EA
:101F46002608033EA60027080318013E003EA70008
:101F56000800831603131E08403A03198E2FC03A51
:101F66000319982F403A0319A22FB92F08000B1D09
:101F7600F52F0B11643081000130B4070318B50A40
:101F86000030B50707150000831203130711E83068
:101F9600F0000330F1003508F3003408F2000A12AD
:101FA6008A11C4270A128A1570087104031DE12FCD
:101FB6001030831203138606B401B501831203138E
:101FC6000618E92F0130F6007608BC078618EF2FB1
:101FD6000130F6007608BB070619F52F0130F6002A
:101FE6007608BA077A08FF0079088A00780884001C
:0A1FF600770E8300FE0E7E0E090038
:02400E003A3F37
:00000001FF
