:060000000A128A11122809
:10000800FE00030EF7000408F8000A08F90083123E
:1000180003137F08FA000A128A11802F0A128A1124
:1000280015280A128A1559260A128A11E9000A1295
:100038008A155A260A128A11EA008313203084008E
:1000480046300A128A11F827FB01FC01FD018301E1
:100058000A128A116D2B0230831203135C020530D9
:1000680003195B020318982802305C020130031957
:100078005B02031C98280030CF000030CE0000300F
:10008800CD000430CC00F430DD00C930DE00003093
:10009800DF000030E0005C08C7005B08C600643081
:1000A800C8000030C9000A128A150C270A128A11E2
:1000B800831203134608E1004708E200E301E40164
:1000C800E109E209E309E409E10A0319E20A03196B
:1000D800E30A0319E40A6108DD0762080318620FDE
:1000E80076287728DE0763080318630F7C287D28A5
:1000F800DF0764080318640AE0076008D3005F0894
:10010800D2005E08D1005D08D0000A128A11A52528
:100118000A128A11831203134C08643EA0004D088A
:100128000318013E003EA10002305C0201300319B1
:100138005B020318FF2801305C02893003195B0257
:10014800031CFF280030CF000030CE000030CD0067
:100158007830CC006430DD00C830DE000030DF00CD
:100168000030E0005C08C7005B08C6006430C800C7
:100178000030C9000A128A150C270A128A11831244
:1001880003134608E1004708E200E301E401E1093E
:10019800E209E309E409E10A0319E20A0319E30A97
:1001A8000319E40A6108DD0762080318620FDD28F5
:1001B800DE28DE0763080318630FE328E428DF0757
:1001C80064080318640AE0076008D3005F08D200D7
:1001D8005E08D1005D08D0000A128A11A5250A120E
:1001E8008A11831203134C08C83EA0004D08031857
:1001F800013E003EA10001305C02893003195B0218
:100208000318662901305C022A3003195B02031CBB
:1002180066290030CF000030CE000030CD005F30BE
:10022800CC008430DD009930DE000030DF00003083
:10023800E0005C08C7005B08C6006430C8000030F6
:10024800C9000A128A150C270A128A11831203138D
:100258004608E1004708E200E301E401E109E20998
:10026800E309E409E10A0319E20A0319E30A031995
:10027800E40A6108DD0762080318620F442945296A
:10028800DE0763080318630F4A294B29DF07640850
:100298000318640AE0076008D3005F08D2005E080C
:1002A800D1005D08D0000A128A11A5250A128A1108
:1002B800831203134C082C3EA0004D080318013E7E
:1002C800013EA10001305C022A3003195B020318C9
:1002D800A52900305C02EC3003195B02031CA52938
:1002E8003E30CC000030CD005C08C7005B08C6007B
:1002F8006430C8000030C9000A128A150C270A1297
:100308008A11831203134609DD004709DE00DD0A5E
:100318000319DE0A5D08683ECE005E080318013E38
:10032800743ECF000A128A157D270A128A11831299
:1003380003134C08903EA0004D080318013E013EEF
:10034800A10000305C02EC3003195B020318E429B9
:1003580000305C02C23003195B02031CE4292A3016
:10036800CC000030CD005C08C7005B08C6006430D4
:10037800C8000030C9000A128A150C270A128A110F
:10038800831203134609DD004709DE00DD0A03195D
:10039800DE0A5D08303ECE005E080318013E5C3E72
:1003A800CF000A128A157D270A128A1183120313B5
:1003B8004C08F43EA0004D080318013E013EA10080
:1003C80000305C02C23003195B020318232A003094
:1003D8005C02A83003195B02031C232A1A30CC00E4
:1003E8000030CD005C08C7005B08C6006430C80058
:1003F8000030C9000A128A150C270A128A118312C2
:1004080003134609DD004709DE00DD0A0319DE0A89
:100418005D08C83ECE005E080318013E4B3ECF0083
:100428000A128A157D270A128A11831203134C08AF
:10043800583EA0004D080318013E023EA1000030BE
:100448005C02A83003195B020318622A00305C02C0
:10045800903003195B02031C622A1830CC0000306C
:10046800CD005C08C7005B08C6006430C8000030D7
:10047800C9000A128A150C270A128A11831203135B
:100488004609DD004709DE00DD0A0319DE0A5D08BA
:10049800A03ECE005E080318013E413ECF000A127E
:1004A8008A157D270A128A11831203134C08BC3E51
:1004B800A0004D080318013E023EA10000305C0276
:1004C800903003195B020318A12A00305C028130C6
:1004D80003195B02031CA12A0F30CC000030CD00A9
:1004E8005C08C7005B08C6006430C8000030C9005B
:1004F8000A128A150C270A128A1183120313460955
:10050800DD004709DE00DD0A0319DE0A5D08403E0A
:10051800CE005E080318013E383ECF000A128A1545
:100528007D270A128A11831203134C08203EA0006B
:100538004D080318013E033EA10000305C028130E3
:1005480003195B020318E02A00305C026E300319BD
:100558005B02031CE02A1330CC000030CD005C089D
:10056800C7005B08C6006430C8000030C9000A1222
:100578008A150C270A128A11831203134609DD0013
:100588004709DE00DD0A0319DE0A5D08643ECE0075
:100598005E080318013E323ECF000A128A157D27F5
:1005A8000A128A11831203134C08B63EA0004D08A4
:1005B8000318013E033EA10000305C026E300319AF
:1005C8005B0203181F2B00305C02623003195B02C8
:1005D800031C1F2B0C30CC000030CD005C08C7007A
:1005E8005B08C6006430C8000030C9000A128A15CA
:1005F8000C270A128A11831203134609DD004709E2
:10060800DE00DD0A0319DE0A5D08F83ECE005E084A
:100618000318013E2A3ECF000A128A157D270A12C6
:100628008A11831203134C084C3EA0004D0803188E
:10063800013E043EA10000305C02623003195B02F7
:1006480003185C2B00305C025A3003195B02031C50
:100658005C2B5C08C7005B08C6006430C80000302B
:10066800C9000A128A150C270A128A118312031369
:100678004609DD004709DE00DD0A0319DE0A5D08C8
:10068800483EDF005E080318013E263EE0000310E6
:10069800E00CDF0C0310E00CDF0C0310E00CDF0CA7
:1006A8005F08E23EA00060080318013E043EA10076
:1006B80000305C025A3003195B02031C6A2B0230BB
:1006C8005C02053003195B02031C0800A001A101AC
:1006D80008000A128A15D4260A128A110A128A15E3
:1006E80079260A128A110A128A1554270A128A11BF
:1006F8000A128A15BE260A128A110D3083120313B4
:10070800E5006508E80068080A128A1588260A12B2
:100718008A1180300A128A156D260A128A118430CD
:100728000A128A156D260A128A110A3083120313D7
:1007380040020318061CF82BA801A9012908803AD1
:10074800FF0081307F02031DAB2B90302802031875
:10075800DB2B0A128A11ED260A128A110A128A154F
:10076800EC260A128A118312031323086A02031D56
:10077800BF2B220869020318CA2B2308EA002208A3
:10078800E9004308B600B701B61BB7030130A80754
:100798000318A90A0030A9072908803AFF00813008
:1007A8007F02031DD92B90302802031CAD2B831226
:1007B80003134308A800A901A81BA90337082906A1
:1007C800031DE82B360828060319F82B0A128A118C
:1007D80038270A128A11013083120313A807031855
:1007E800A90A0030A907E22B0A303F020318861C29
:1007F8005E2CBC01BD010030C700C800FA30C9003A
:100808000030CA007F30CB000030CC00FF30CD0074
:100818000030CE000A128A152F270A128A11831275
:100828000313A801A9012908803AFF0081307F023B
:10083800031D202C903028020318492C0A128A1113
:1008480034260A128A11023083120313E700043097
:10085800E600BA30E500E50B2F2CE60B2F2CE70B52
:100868002F2C0000013083120313A8070318A90ACC
:100878000030A9072908803AFF0081307F02031D54
:10088800472C90302802031C222C003083120313BB
:10089800C700C8000030C900CA007F30CB00003054
:1008A800CC00FF30CD000030CE000A128A152F2769
:1008B8000A128A110A30831203133E020318061D16
:1008C800992BBC01BD01A801A9012908803AFF00A4
:1008D80080307F02031D722C043028020318F82C84
:1008E800003083120313C700C800FA30C900003073
:1008F800CA00FF30CB000030CC00FF30CD00003004
:10090800CE000A128A152F270A128A111A3083126A
:100918000313E7005E30E6008630E500E50B922C15
:10092800E60B922CE70B922C000083120313AA010A
:10093800AB012B08803AFF0080307F02031DA62CF4
:1009480064302A020318E52C003083120313C70011
:10095800C800FA30C9000030CA007F30CB00003030
:10096800CC00FF30CD000030CE000A128A152F27A8
:100978000A128A110A128A1134260A128A110230BE
:1009880083120313E7000430E600BA30E500E50BF4
:10099800CB2CE60BCB2CE70BCB2C000001308312C1
:1009A8000313AA070318AB0A0030AB072B08803AD9
:1009B800FF0080307F02031DE32C64302A02031CF1
:1009C800A82C013083120313A8070318A90A0030C2
:1009D800A9072908803AFF0080307F02031DF62C02
:1009E80004302802031C742C003083120313C70040
:1009F800C8000030C900CA007F30CB000030CC00EE
:100A0800FF30CD000030CE000A128A152F270A12B7
:100A18008A11992B831203134A08D4004908D3007A
:100A2800CB01CC01CD01CE01CF01D001D101D20142
:100A380027305402103003195302031C402D530869
:100A4800F03ED30054080318013ED83ED4000130CC
:100A5800D1070318D20A0030D2071C2D5308183EBC
:100A6800D30054080318013EFC3ED4000130CF07E0
:100A78000318D00A0030D00703305402E8300319B5
:100A88005302031C562D322D53089C3ED3005408A4
:100A98000318013EFF3ED4000130CD070318CE0AEB
:100AA8000030CE0700305402643003195302031C8F
:100AB8006C2D482D5308F63ED30054080318013E08
:100AC800FF3ED4000130CB070318CC0A0030CC0716
:100AD800003054020A300319530203185E2D5108DE
:100AE800520403197E2D5108303E0A128A159726A2
:100AF8000A128A11831203134F08500403198B2D0D
:100B08004F08303E0A128A1597260A128A11831254
:100B180003134D08303E0A128A1597260A128A11C5
:100B2800831203134B08303E0A128A1597260A12BD
:100B38008A11831203135308303E0A128A15972626
:100B4800080083120313D601CF1FB72DCC09CD0996
:100B5800CE09CF09CC0A0319CD0A0319CE0A031905
:100B6800CF0AD601D60AD31FC82DD009D109D20978
:100B7800D309D00A0319D10A0319D20A0319D30ACF
:100B88000130D4005408D6060030DA000030D9000D
:100B98000030D8000030D7004F084E044D044C04F4
:100BA80003191D2ED501D50ACF1BE82D0130D4001D
:100BB8000310CC0DCD0DCE0DCF0DD40BDC2D013097
:100BC800D4005408D507D82D0130D4000310D70D10
:100BD800D80DD90DDA0DD40BEA2D4F085302031D99
:100BE800FF2D4E085202031DFF2D4D085102031D13
:100BF800FF2D4C085002031C102E4C08D0024D0843
:100C0800031C4D0FD1024E08031C4E0FD2024F0891
:100C1800031C4F0FD302571401300310CF0CCE0C16
:100C2800CD0CCC0CFF3E031D112E0130D502031D47
:100C3800E82D560803192B2ED709D809D909DA093E
:100C4800D70A0319D80A0319D90A0319DA0A5A085C
:100C5800CF005908CE005808CD005708CC0008002E
:100C68008E300A128A156D260A128A1113300A125A
:100C78008A156D260A128A110A128A1564260A1222
:100C88008A11831203134208D500D6015508C400FF
:100C98005608C5000A128A1564260A128A11831298
:100CA80003134208D500D6015508AC005608AD001C
:100CB8004508D6004408D5005508D600D5012C08AB
:100CC8005507A6002D0803182D0A5607A7000A3055
:100CD800C6000030C70026083C07C80027080318CC
:100CE800270A3D07C9000A128A1192260A128A1198
:100CF800831203134708BD004608BC00C0300A121F
:100D08008A155B260A128A11831203133D08CA004A
:100D18003C08C9000A128A110E2508008312031321
:100D2800CC01C71F9E2EC609C709C60A0319C70AE0
:100D3800CC01CC0AC91FA92EC809C909C80A0319B8
:100D4800C90A0130CA004A08CC06CD01CE014608BE
:100D580047040319E02ECB01CB0AC71BBF2E013075
:100D68000310C60DC70DFF3E031DB42E0130CA0087
:100D78004A08CB07B12E01300310CD0DCE0DFF3E32
:100D8800031DC02E47084902031DCC2E4608480201
:100D9800031CD52E4608C8024708031CC903C9020C
:100DA8004D1401300310C70CC60CFF3E031DD62E90
:100DB8000130CB02031DBF2E4C080319E82ECD09C4
:100DC800CE09CD0A0319CE0A4E08C7004D08C60041
:100DD8000800831203134308031DF42EFC01FC0AC8
:100DE800FF30C6004608C307142F1B30062F1730E4
:100DF800062F3530062F2730062F2B30062F2E30A2
:100E0800062F3C3087000130FB022E2F1E30870052
:100E18000730C6004608FB002E2F393087002E2FDA
:100E28007B08003A03190A2F013A0319052F033AE0
:100E38000319032F013A0319012F073A0319FF2E4B
:100E4800013A0319FD2E033A0319FB2E013A03193F
:100E5800F92E112F1430C7007930C600C60B322F77
:100E6800C70B322F372F080083120313430A0319C5
:100E7800FC010130C6004608C3075C2F2E304F2FF7
:100E88002B304F2F27304F2F35304F2F17304F2F04
:100E98001B304F2F1E3087000130C6004608FB0765
:100EA800762F3C308700FB01762F39308700762F6C
:100EB8007B08003A0319422F013A0319442F033AD9
:100EC8000319462F013A0319482F073A03194A2FE5
:100ED800013A03194C2F033A03194E2F013A03190B
:100EE800552F592F1430C7007930C600C60B7A2FFA
:100EF800C70B7A2F7F2F08000B1DBB2F0B116430F7
:100F080081000130BA070318BB0A0030BB07071578
:100F18000000831203130711E830F0000330F100DA
:100F28003B08F3003A08F2000A128A11C6270A128F
:100F38008A1170087104031DA72F0130831203134F
:100F48008606BA01BB01831203130618AF2F0130BE
:100F5800F6007608C0078618B52F0130F600760827
:100F6800BF070619BB2F0130F6007608BE077A08BE
:100F7800FF0079088A0078088400770E8300FE0E47
:100F88007E0E0900700871040319F32FF501F50AA4
:100F9800F11BDA2F01300310F00DF10DFF3E031D98
:100FA800CF2F0130F4007408F507CC2F71087302B5
:100FB800031DE02F70087202031CE82F7008F2026C
:100FC8007108031CF303F30201300310F10CF00C59
:100FD800FF3E031DE92F0130F502031DDA2F7308C8
:100FE800F1007208F000080064008001840A040619
:080FF800031900340406F92F6F
:101CB200E834033483120313C900C91749080A120E
:101CC2008A15AA260800831203138C1E642E1A0892
:101CD200C6004608C700080083120313C600831615
:101CE2000313981C702E83120313460899000800F0
:101CF200243083160313980098308312031398003C
:101D020014308316031399000B178B1708008312E4
:101D12000313C800C7018C11480893008C1D8F2E35
:101D22001308C6004608C7008C110800831203136B
:101D3200C8000911891009144808880009150911F9
:101D42000730C7007D30C600C60BA52EC70BA52ED7
:101D5200080083120313C8000911891009104808EA
:101D62008800091509110D30C700FB30C600C60BEB
:101D7200B82EC70BB82EBD2E08008312031385019F
:101D8200FF308316031385008930831203139F00EB
:101D92000230831603139F00533083120313C600CD
:101DA200C60BD12E0800831603138601403094001F
:101DB2002030831203139400D0308316031387005C
:101DC2000330831203138700043083160313810048
:101DD2008B168B1708000A128A15BB270A128A155E
:101DE20080300A128A155B260A128A15831203139F
:101DF2002308CA002208C9000A128A110E250A12F3
:101E02008A15831203132308DC002208DB000A125E
:101E12008A112F20080083120313CA01CB01461C2A
:101E2200182F4808CA070318CB0A4908CB07013004
:101E32000310C80DC90DFF3E031D192F01300310F9
:101E4200C70CC60CFF3E031D202F46084704031D86
:101E5200102F4B08C7004A08C600080089300A1232
:101E62008A156D260A128A158312031347080A126D
:101E72008A156D260A128A158312031349080A125B
:101E82008A156D260A128A15831203134B080A1249
:101E92008A156D260A128A15831203134D080A1237
:101EA2008A156D2608000230831603139F008312E1
:101EB2000313880189018316031388018901013004
:101EC2000A128A15AA260A128A1538300A128A15A7
:101ED200AA260A128A150C300A128A15AA260A1292
:101EE2008A1506300A128A15AA260A128A150230A3
:101EF2000A128A15AA26080083120313D101D201FD
:101F02004C084D040319B62FD301D30ACD1B952FCC
:101F120001300310CC0DCD0DFF3E031D8A2F013081
:101F2200D0005008D307872F01300310D10DD20DF6
:101F3200FF3E031D962F4D084F02031DA22F4C0892
:101F42004E02031CAB2F4C08CE024D08031CCF03DC
:101F5200CF02511401300310CD0CCC0CFF3E031DF7
:101F6200AC2F0130D302031D952F5208CD0051082A
:101F7200CC000800831203139E01831603139E01F3
:101F8200831203131F151F19C42F1E08C600C70191
:101F92000310C60DC70D0310C60DC70D4608A200DB
:101FA2004708A300F22F83122208013EA200230851
:101FB2000318013E003EA300080083122208023EDD
:101FC200A20023080318013E003EA300080083126A
:101FD2002208033EA20023080318013E003EA3008C
:101FE2000800831603131E08403A0319D42FC03A7F
:0E1FF2000319DE2F403A0319E82FFF2F0800D5
:02400E003A3F37
:00000001FF
