:060000000A128A11122809
:10000800FE00030EFA000408FB000A08FC00831235
:1000180003137F08FD000A128A11E32E0A128A11BF
:1000280015280A128A159C250A128A11ED000A124F
:100038008A159D250A128A11EE0083132030840048
:100048004A300A128A159E25EF0183010A128A1185
:100058006B2B0230831203136002053003195F0211
:100068000318962802306002013003195F02031C4E
:1000780096280030D3000030D2000030D100043080
:10008800D000F430E100C930E2000030E300003075
:10009800E4006008CB005F08CA006430CC00003080
:1000A800CD000A128A1562260A128A1183120313D6
:1000B8004A08E5004B08E600E701E801E509E6091A
:1000C800E709E809E50A0319E60A0319E70A031923
:1000D800E80A6508E10766080318660F742875289A
:1000E800E20767080318670F7A287B28E307680880
:1000F8000318680AE4076408D7006308D600620892
:10010800D5006108D4000A128A1154260A128A11ED
:10011800831203135008643EA00051080318013EDF
:10012800003EA10002306002013003195F0203188B
:10013800FD2801306002893003195F02031CFD2885
:100148000030D3000030D2000030D1007830D00029
:100158006430E100C830E2000030E3000030E40021
:100168006008CB005F08CA006430CC000030CD00C6
:100178000A128A1562260A128A11831203134A0880
:10018800E5004B08E600E701E801E509E609E709AB
:10019800E809E50A0319E60A0319E70A0319E80A50
:1001A8006508E10766080318660FDB28DC28E20704
:1001B80067080318670FE128E228E30768080318AF
:1001C800680AE4076408D7006308D6006208D50007
:1001D8006108D4000A128A1154260A128A1183125D
:1001E80003135008C83EA00051080318013E003E02
:1001F800A10001306002893003195F0203186429E5
:10020800013060022A3003195F02031C64290030A0
:10021800D3000030D2000030D1005F30D0008430ED
:10022800E1009930E2000030E3000030E4006008AB
:10023800CB005F08CA006430CC000030CD000A1241
:100248008A1562260A128A11831203134A08E500E6
:100258004B08E600E701E801E509E609E709E809CE
:10026800E50A0319E60A0319E70A0319E80A650803
:10027800E10766080318660F42294329E207670861
:100288000318670F48294929E30768080318680A0B
:10029800E4076408D7006308D6006208D50061083F
:1002A800D4000A128A1154260A128A1183120313DF
:1002B80050082C3EA00051080318013E013EA10041
:1002C800013060022A3003195F020318A3290030A5
:1002D8006002EC3003195F02031CA3293E30D000F2
:1002E8000030D1006008CB005F08CA006430CC0041
:1002F8000030CD000A128A1562260A128A1183126A
:1003080003134A09E1004B09E200E10A0319E20A72
:100318006108683ED20062080318013E743ED300AB
:100328000A128A153F270A128A11831203135008EA
:10033800903EA00051080318013E013EA100003084
:100348006002EC3003195F020318E22900306002F2
:10035800C23003195F02031CE2292A30D0000030A2
:10036800D1006008CB005F08CA006430CC000030C0
:10037800CD000A128A1562260A128A118312031303
:100388004A09E1004B09E200E10A0319E20A61089F
:10039800303ED20062080318013E5C3ED3000A12C8
:1003A8008A153F270A128A11831203135008F43E54
:1003B800A00051080318013E013EA1000030600270
:1003C800C23003195F020318212A00306002A830E6
:1003D80003195F02031C212A1A30D0000030D10013
:1003E8006008CB005F08CA006430CC000030CD0044
:1003F8000A128A1562260A128A11831203134A09FD
:10040800E1004B09E200E10A0319E20A6108C83E6B
:10041800D20062080318013E4B3ED3000A128A1527
:100428003F270A128A11831203135008583EA0006E
:1004380051080318013E023EA10000306002A830B6
:1004480003195F020318602A003060029030031914
:100458005F02031C602A1830D0000030D100600809
:10046800CB005F08CA006430CC000030CD000A120F
:100478008A1562260A128A11831203134A09E100B7
:100488004B09E200E10A0319E20A6108A03ED20022
:1004980062080318013E413ED3000A128A153F271D
:1004A8000A128A11831203135008BC3EA000510897
:1004B8000318013E023EA10000306002903003198B
:1004C8005F0203189F2A00306002813003195F021F
:1004D800031C9F2A0F30D0000030D1006008CB00E9
:1004E8005F08CA006430CC000030CD000A128A15BB
:1004F80062260A128A11831203134A09E1004B0982
:10050800E200E10A0319E20A6108403ED2006208EB
:100518000318013E383ED3000A128A153F270A12F3
:100528008A11831203135008203EA00051080318B3
:10053800013E033EA10000306002813003195F02D2
:100548000318DE2A003060026E3003195F02031CB4
:10055800DE2A1330D0000030D1006008CB005F08DD
:10056800CA006430CC000030CD000A128A15622619
:100578000A128A11831203134A09E1004B09E200A7
:10058800E10A0319E20A6108643ED200620803180E
:10059800013E323ED3000A128A153F270A128A11F9
:1005A800831203135008B63EA00051080318013EF9
:1005B800033EA100003060026E3003195F02031889
:1005C8001D2B00306002623003195F02031C1D2BD3
:1005D8000C30D0000030D1006008CB005F08CA00A2
:1005E8006430CC000030CD000A128A1562260A1247
:1005F8008A11831203134A09E1004B09E200E10A58
:100608000319E20A6108F83ED20062080318013EA5
:100618002A3ED3000A128A153F270A128A1183122A
:10062800031350084C3EA00051080318013E043E35
:10063800A10000306002623003195F0203185A2BD0
:10064800003060025A3003195F02031C5A2B6008FD
:10065800CB005F08CA006430CC000030CD000A121D
:100668008A1562260A128A11831203134A09E100C5
:100678004B09E200E10A0319E20A6108483EE30077
:1006880062080318013E263EE4000310E40CE30C64
:100698000310E40CE30C0310E40CE30C6308E23EE3
:1006A800A00064080318013E043EA1000030600267
:1006B8005A3003195F02031C682B023060020530B0
:1006C80003195F02031C0800A001A10108007F3084
:1006D80083120313EB00D430EA00AE30E900E90BD3
:1006E800732BEA0B732BEB0B732B7A2B0A128A15DD
:1006F8002A260A128A117F3083120313EB00D430A2
:10070800EA00AE30E900E90B872BEA0B872BEB0BED
:10071800872B8E2B0A128A15CF250A128A117F3051
:1007280083120313EB00D430EA00AE30E900E90B82
:100738009B2BEA0B9B2BEB0B9B2BA22B0A128A15EC
:10074800AA260A128A110A128A1514260A128A116E
:100758000D3083120313E9006908EC006C080A12D3
:100768008A15DE250A128A114D3083120313EB0015
:100778001930EA009A30E900E90BC02BEA0BC02BCC
:10078800EB0BC02BC72B80300A128A15C3250A121F
:100798008A114D3083120313EB001930EA009A30A6
:1007A800E900E90BD52BEA0BD52BEB0BD52BDC2B72
:1007B80084300A128A15C3250A128A114D30831211
:1007C8000313EB001930EA009A30E900E90BEA2B31
:1007D800EA0BEA2BEB0BEA2BF12B831203133B08F2
:1007E800CE003A08CD000A128A11BD250A128A11D4
:1007F8000A308312031341020318061C5E2CED0114
:10080800EE01AA01AB012B08803AFF0081307F027C
:10081800031D102C90302A020318402C0A128A114A
:1008280063270A128A110A128A1542260A128A11A5
:100838008312031323086E02031D242C22086D0261
:1008480003182F2C2308EE002208ED004808B400F6
:10085800B501B41BB5030130AA070318AB0A003071
:10086800AB072B08803AFF0081307F02031D3E2C26
:1008780090302A02031C122C831203134808AA0082
:10088800AB01AA1BAB0335082B06031D4D2C3408FE
:100898002A0603195D2C0A128A11AE270A128A1138
:1008A800013083120313AA070318AB0A0030AB0701
:1008B800472CC1010A303E02031CD62CCC01CC0ABD
:1008C80012300A128A157D270A128A11831203131D
:1008D8004C084D04031DD62C0130CB000030CC0051
:1008E8009030CD000030CE007F30CF000030D000F7
:1008F800FF30D1000030D2000A128A1585260A126C
:100908008A11831203133B08803AFF008F307F025D
:10091800031D902CA0303A020318BE2C023083121B
:100928000313E9006908CC0013300A128A157D27E1
:100938000A128A11831203134D08A9004C08A80053
:1009480028083A07BA0029080318290A3B07BB00F8
:1009580000300A128A15A6250A128A118312031377
:100968003B08CE003A08CD000A128A11BD250A12AA
:100978008A11852C003083120313CB00CC00003081
:10098800CD00CE007F30CF000030D000FF30D10046
:100998000030D2000A128A1585260A128A1183129B
:1009A8000313BE010A303D02031CA92DCC01CC0A59
:1009B80012300A128A157D270A128A11831203132C
:1009C8004C084D04031DA92DBA01BB01AA01AB01B6
:1009D8002B08803AFF0080307F02031DF52C04307D
:1009E8002A020318912D003083120313CB00CC0088
:1009F800FA30CD000030CE00FF30CF000030D000FC
:100A0800FF30D1000030D2000A128A1585260A125A
:100A18008A11831203132508803AFF007F307F0272
:100A2800031D182DA7302402031C2D2D023083121C
:100A38000313E9006908CC0014300A128A157D27CF
:100A48000A128A11831203134D08A5004C08A4004A
:100A58000D2D003083120313CB00CC00FA30CD00EB
:100A68000030CE007F30CF000030D000FF30D10002
:100A78000030D2000A128A1585260A128A118312BA
:100A880003133B08803AFF0083307F02031D4E2D7D
:100A9800E8303A0203187C2D023083120313E90070
:100AA8006908CC0013300A128A157D270A128A11A8
:100AB800831203134D08A9004C08A80028083A0718
:100AC800BA0029080318290A3B07BB0000300A129C
:100AD8008A15A6250A128A11831203133B08CE0031
:100AE8003A08CD000A128A11BD250A128A11432D2F
:100AF80083120313BA01BB010130AA070318AB0A1A
:100B08000030AB072B08803AFF0080307F02031DBE
:100B18008F2D04302A02031CF72C00308312031394
:100B2800CB00CC000030CD00CE007F30CF000030AD
:100B3800D000FF30D1000030D2000A128A15852675
:100B48000A128A1183120313BD010A303C02031CE6
:100B5800FC2BCC01CC0A12300A128A157D270A1206
:100B68008A11831203134C084D04031DFC2BBC018E
:100B7800FC2B831203134E08D8004D08D700CF0171
:100B8800D001D101D201D301D401D501D60127303A
:100B98005802103003195702031CEF2D5708F03E76
:100BA800D70058080318013ED83ED8000130D507B1
:100BB8000318D60A0030D607CB2D5708183ED700A1
:100BC80058080318013EFC3ED8000130D30703182B
:100BD800D40A0030D40703305802E830031957020A
:100BE800031C052EE12D57089C3ED7005808031812
:100BF800013EFF3ED8000130D1070318D20A003069
:100C0800D20700305802643003195702031C1B2E08
:100C1800F72D5708F63ED70058080318013EFF3E47
:100C2800D8000130CF070318D00A0030D0070030B1
:100C380058020A300319570203180D2E5508560496
:100C480003192D2E5508303E0A128A15ED250A1271
:100C58008A11831203135308540403193A2E5308B4
:100C6800303E0A128A15ED250A128A1183120313DF
:100C78005108303E0A128A15ED250A128A1183128C
:100C880003134F08303E0A128A15ED250A128A11FD
:100C9800831203135708303E0A128A15ED250800FF
:100CA80083120313DA01D31F662ED009D109D209A2
:100CB800D309D00A0319D10A0319D20A0319D30A8E
:100CC800DA01DA0AD71F772ED409D509D609D70948
:100CD800D40A0319D50A0319D60A0319D70A013009
:100CE800D8005808DA060030DE000030DD00003099
:100CF800DC000030DB00530852045104500403198F
:100D0800CC2ED901D90AD31B972E0130D800031055
:100D1800D00DD10DD20DD30DD80B8B2E0130D800AC
:100D28005808D907872E0130D8000310DB0DDC0DD9
:100D3800DD0DDE0DD80B992E53085702031DAE2E7C
:100D480052085602031DAE2E51085502031DAE2E41
:100D580050085402031CBF2E5008D4025108031C2B
:100D6800510FD5025208031C520FD6025308031C18
:100D7800530FD7025B1401300310D30CD20CD10CE3
:100D8800D00CFF3E031DC02E0130D902031D972E43
:100D98005A080319DA2EDB09DC09DD09DE09DB0A4A
:100DA8000319DC0A0319DD0A0319DE0A5E08D300F9
:100DB8005D08D2005C08D1005B08D00008000B1D5C
:100DC800562F0B11643081000130B8070318B90A97
:100DD8000030B90707150000831203130711E83024
:100DE800F0000330F1003908F3003808F2000A1265
:100DF8008A15D3260A128A1170087104031D0A2F56
:100E08001030831203138606B801B9018312031345
:100E18000618122F0130F9007908C1078618182F13
:100E28000130F9007908C00706191E2F0130F900B2
:100E38007908BF07F201F20A12300A128A1505274B
:100E48000A128A1172037304031D302F0130F9004E
:100E5800790883120313BE07F201F20A12300A124C
:100E68008A1505270A128A11043072067304031DB5
:100E7800432F0130F900790883120313BD07F201EB
:100E8800F20A12300A128A1505270A128A11053049
:100E980072067304031D562F0130F9007908831276
:100EA8000313BC077D0883120313FF007C088A0024
:100EB8007B0884007A0E8300FE0E7E0E09008312E2
:100EC80003134808031D6A2FC601C60AFF30CA006B
:100ED8004A08C8078A2F1B307C2F17307C2F3530E3
:100EE8007C2F27307C2F2B307C2F2E307C2F3C30D2
:100EF80087000130C402A42F1E3087000730CA00C3
:100F08004A08C400A42F39308700A42F4408003AA7
:100F18000319802F013A03197B2F033A0319792FFC
:100F2800013A0319772F073A0319752F013A031964
:100F3800732F033A0319712F013A03196F2F872F63
:100F48001430CB007930CA00CA0BA82FCB0BA82FBE
:100F5800AD2F080083120313480A0319C601013094
:100F6800CA004A08C807D22F2E30C52F2B30C52FEC
:100F78002730C52F3530C52F1730C52F1B30C52F4B
:100F88001E3087000130CA004A08C407EC2F3C30E5
:100F98008700C401EC2F39308700EC2F4408003A51
:100FA8000319B82F013A0319BA2F033A0319BC2FB2
:100FB800013A0319BE2F073A0319C02F013A031942
:100FC800C22F033A0319C42F013A0319CB2FCF2F8D
:100FD8001430CB007930CA00CA0BF02FCB0BF02F9E
:100FE800F52F0800831203138C1EF62F1A08CA0067
:080FF8004A08CB004B08080079
:101B3800E834033464008001840A0406031900347D
:101B480004069F2D83120313CD00CD174D080A12EA
:101B58008A1500260800831203138C1EAF2D1A085D
:101B6800F0007008F10071080800F00083160313F4
:101B7800981CBA2D70088312031399000800831269
:101B88000313CA0083160313981CC62D831203136C
:101B98004A089900080024308316031398009830E7
:101BA80083120313980014308316031399000B173C
:101BB8008B17080083120313CC00CB018C114C083F
:101BC80093008C1DE52D1308CA004A08CB008C1120
:101BD800080083120313CC000911891009144C085A
:101BE8008800091509110730CB007D30CA00CA0BDF
:101BF800FB2DCB0BFB2D080083120313CC0009111E
:101C0800891009104C088800091509110D30CB00FE
:101C1800FB30CA00CA0B0E2ECB0B0E2E132E08005B
:101C2800831203138501FF3083160313850089305F
:101C3800831203139F000230831603139F0053304F
:101C480083120313CA00CA0B272E08008316031336
:101C58008601403094002030831203139400D03062
:101C6800831603138700033083120313870004309D
:101C78008316031381008B168B1708000A128A1526
:101C8800BB270A128A1580300A128A15A6250A125D
:101C98008A15831203132308CE002208CD000A12E6
:101CA8008A11BD250A128A15831203132308E0003E
:101CB8002208DF000A128A112D200800831203135C
:101CC800CE01CF014A1C6E2E4C08CE070318CF0A4E
:101CD8004D08CF0701300310CC0DCD0DFF3E031D7D
:101CE8006F2E01300310CB0CCA0CFF3E031D762E5D
:101CF8004A084B04031D662E4F08CB004E08CA0045
:101D0800080089300A128A15C3250A128A15831217
:101D180003134B080A128A15C3250A128A1583125F
:101D280003134D080A128A15C3250A128A1583124D
:101D380003134F080A128A15C3250A128A1583123B
:101D4800031351080A128A15C325080002308316A6
:101D580003139F0083120313880189018316031359
:101D68008801890101300A128A1500260A128A158B
:101D780038300A128A1500260A128A150C300A12FF
:101D88008A1500260A128A1506300A128A150026B4
:101D98000A128A1502300A128A15002608007008ED
:101DA80071040319002FF501F50AF11BE72E013024
:101DB8000310F00DF10DFF3E031DDC2E0130F40081
:101DC8007408F507D92E71087302031DED2E7008EB
:101DD8007202031CF52E7008F2027108031CF3034B
:101DE800F30201300310F10CF00CFF3E031DF62E38
:101DF8000130F502031DE72E7308F1007208F000A8
:101E08000800F6008E300A128A15B9250A128A15BA
:101E180076080A128A15B9250A128A15023072063E
:101E2800031D212F0A128A15AF250A128A15F400FC
:101E3800740883120313C900242F83120313C901E2
:101E48000A128A15AF25F400740883120313C5001B
:101E58004908F400F5017408F500F4014508740711
:101E6800F7000030031801307507F8007808F30010
:101E78007708F200080083120313D501D601500831
:101E880051040319782FD701D70AD11B572F0130D6
:101E98000310D00DD10DFF3E031D4C2F0130D4008F
:101EA8005408D707492F01300310D50DD60DFF3E32
:101EB800031D582F51085302031D642F5008520266
:101EC800031C6D2F5008D2025108031CD303D30200
:101ED800551401300310D10CD00CFF3E031D6E2F9A
:101EE8000130D702031D572F5608D1005508D000DE
:101EF800080083120313D2008E300A128A15C325F4
:101F08000A128A158312031352080A128A15C32566
:101F18000A128A150230831203134C06031D9F2FE1
:101F28000A128A11F6270A128A1583120313CE00A1
:101F38004E08C900A02FC9010A128A11F627831278
:101F48000313CE004E08C5004908CE00CF014E0845
:101F5800CF00CE0145084E07D000003003180130ED
:101F68004F07D1005108CD005008CC00080083125B
:101F780003139E01831603139E01831203131F1577
:101F88001F19C42F1E08CA00CB010310CA0DCB0DA0
:101F98000310CA0DCB0D4A08A2004B08A300F22F6C
:101FA80083122208013EA20023080318013E003EC6
:101FB800A300080083122208023EA2002308031887
:101FC800013E003EA300080083122208033EA2003F
:101FD80023080318013E003EA300080083160313DC
:101FE8001E08403A0319D42FC03A0319DE2F403A8D
:081FF8000319E82FFF2F080078
:02400E003A3F37
:00000001FF
